:020000040000FA
:100000000C945E000C9486000C9486000C94860080
:100010000C9486000C9486000C9486000C94860048
:100020000C9486000C9486000C9486000C94860038
:100030000C9486000C9486000C9486000C94860028
:100040000C9425030C9486000C9495030C946F0378
:100050000C9486000C9486000C9486000C94860008
:100060000C9486000C948600000000080002010039
:100070000003040700000000000000000000000072
:10008000250028002B0000000000240027002A0083
:10009000040404040404040402020202020203032E
:1000A0000303030301020408102040800102040836
:1000B0001020010204081020C703A50511241FBE4B
:1000C000CFEFD8E0DEBFCDBF22E0AAE5B1E001C0AE
:1000D0001D92A831B207E1F711E0A0E0B1E0ECEE2B
:1000E000FFE002C005900D92AA35B107D9F710E0E4
:1000F000CDE5D0E004C02197FE010E94E805CC3593
:10010000D107C9F70E943C040C94E9070C94000045
:100110000895AF92BF92CF92DF92EF92FF920F932A
:100120001F93CF93DF936C017B018B01040F151F8D
:10013000EB015E01AE18BF08C017D10759F06991F5
:10014000D601ED91FC910190F081E02DC601099559
:10015000892B79F7C501DF91CF911F910F91FF9006
:10016000EF90DF90CF90BF90AF900895FC01538D3A
:10017000448D252F30E0842F90E0821B930B541781
:1001800010F0CF96089501970895FC01918D828D0E
:10019000981761F0A28DAE0FBF2FB11D5D968C91A7
:1001A000928D9F5F9F73928F90E008958FEF9FEFE6
:1001B00008952FB7F89480915F0190916001A0910C
:1001C0006101B09162012FBF80936B0190936C012C
:1001D000A0936D01B0936E0183E691E00E94C5008B
:1001E00097FF26C02FB7F89480915F01909160012E
:1001F000A0916101B09162012FBF40916B015091BC
:100200006C0160916D0170916E01841B950BA60BC2
:10021000B70B40916701509168016091690170913D
:100220006A0184179507A607B707B0F28FEF9FEF13
:100230000895FC01918D828D981731F0828DE80F21
:10024000F11D858D90E008958FEF9FEF0895FC01DB
:10025000918D228D892F90E0805C9F4F821B9109A8
:100260008F739927089583E691E00E94270121E08A
:10027000892B09F420E0822F089580E090E0892BFB
:1002800029F00E94330181110C9400000895FC01B3
:10029000A48DA80FB92FB11DA35ABF4F2C91848DE7
:1002A00090E001968F739927848FA689B7892C9344
:1002B000A089B1898C91837080648C93938D848D97
:1002C000981306C00288F389E02D80818F7D80839A
:1002D0000895EF92FF920F931F93CF93DF93EC015A
:1002E00081E0888F9B8D8C8D98131AC0E889F989DD
:1002F000808185FF15C09FB7F894EE89FF896083E0
:10030000E889F98980818370806480839FBF81E060
:1003100090E0DF91CF911F910F91FF90EF900895A2
:10032000F62E0B8D10E00F5F1F4F0F731127E02E7D
:100330008C8D8E110CC00FB607FCFACFE889F989B5
:10034000808185FFF5CFCE010E944701F1CFEB8D73
:10035000EC0FFD2FF11DE35AFF4FF0829FB7F89489
:100360000B8FEA89FB8980818062CFCFCF93DF93A7
:10037000EC01888D8823B9F0AA89BB89E889F989BD
:100380008C9185FD03C0808186FD0DC00FB607FCF2
:10039000F7CF8C9185FFF2CF808185FFEDCFCE0125
:1003A0000E944701E9CFDF91CF91089590E0FC01D1
:1003B000E859FF4F2491FC01EC55FF4F3491FC01AB
:1003C000E057FF4FE491EE23C9F0222339F02330A8
:1003D00001F1A8F4213019F1223029F1F0E0EE0FFB
:1003E000FF1FE458FF4FA591B4918FB7F894EC919B
:1003F000611126C030953E233C938FBF089527306E
:10040000A9F02830C9F0243049F7809180008F7D11
:1004100003C0809180008F7780938000DFCF84B508
:100420008F7784BDDBCF84B58F7DFBCF8091B0000B
:100430008F778093B000D2CF8091B0008F7DF9CFBD
:100440003E2BDACFFC0124813581FB0144815581AB
:1004500024173507E1F4FC0180819181FB01608163
:1004600071810097D1F061157105A1F4232BC1F0C2
:10047000FC01808190E008C0232B91F0FB0180817A
:1004800090E091958195910921E0892B09F020E078
:10049000822F08950E94D907F7CF6115710561F782
:1004A00021E0F6CFFC0101900020E9F73197AF0180
:1004B000481B590BBC0183E691E00C9489000F9313
:1004C0001F93CF93DF938C01EB01FC01808191811D
:1004D0000097E1F06881798161157105A9F0428189
:1004E00053812C813D814217530770F00E94E2072F
:1004F0008C819D81F801958384831D821C82DF910C
:10050000CF911F910F9108950E948A068881998149
:10051000F801918380838A819B81938382838C817C
:100520009D8195838483198218821B821A82E5CF6C
:10053000FC0180819181009711F00C948A06089546
:100540000F931F93CF93DF93EC01888199810097DC
:1005500059F02A813B812617370730F081E0DF917F
:10056000CF911F910F9108958B016F5F7F4F0E9474
:100570001307009759F0998388831B830A832C8182
:100580003D81232B59F7FC011082E8CF80E0E7CFB3
:10059000EF92FF920F931F93CF93DF93EC017B01B8
:1005A0008A01BA010E94A00228813981811114C0F8
:1005B0002115310519F0C9010E948A061982188295
:1005C0001D821C821B821A82CE01DF91CF911F9166
:1005D0000F91FF90EF9008951D830C83B701C9011F
:1005E0000E94E207F1CFFC01118210821382128275
:1005F00015821482FB0101900020E9F73197AF01C9
:10060000461B570B0C94C802CF93DF93EC01FB0100
:100610008617970749F0608171816115710541F076
:10062000448155810E94C802CE01DF91CF91089587
:1006300088819981009711F00E948A061982188298
:100640001D821C821B821A82EFCF1F920F920FB65F
:100650000F9211242F933F938F939F93AF93BF9348
:1006600080915F0190916001A0916101B091620160
:1006700030915E0123E0230F2D3758F50196A11D1F
:10068000B11D20935E0180935F0190936001A09360
:100690006101B093620180915A0190915B01A09138
:1006A0005C01B0915D010196A11DB11D80935A01BD
:1006B00090935B01A0935C01B0935D01BF91AF91FA
:1006C0009F918F913F912F910F900FBE0F901F9090
:1006D000189526E8230F0296A11DB11DD2CF1F92B7
:1006E0000F920FB60F9211242F933F934F935F9366
:1006F0006F937F938F939F93AF93BF93EF93FF93EA
:1007000083E691E00E944701FF91EF91BF91AF9185
:100710009F918F917F916F915F914F913F912F9119
:100720000F900FBE0F901F9018951F920F920FB64B
:100730000F9211242F938F939F93EF93FF93E09148
:100740007301F09174018081E0917901F0917A0157
:1007500082FD1BC0908180917C018F5F8F732091FF
:100760007D01821741F0E0917C01F0E0ED59FE4FF0
:10077000958F80937C01FF91EF919F918F912F91A5
:100780000F900FBE0F901F9018958081F4CF10929C
:1007900066011092650188EE93E0A0E0B0E08093DE
:1007A000670190936801A0936901B0936A018AE0A0
:1007B00091E0909364018093630185EC90E09093C5
:1007C000700180936F0184EC90E0909372018093AC
:1007D000710180EC90E0909374018093730181EC3F
:1007E00090E0909376018093750182EC90E0909375
:1007F00078018093770186EC90E090937A01809362
:10080000790110927C0110927D0110927E0110926C
:100810007F0168E171E08EE092E00E94F3026FE1F7
:1008200071E088E092E00E94F302E1EBF0E02491B5
:10083000EDE9F0E08491882399F090E0880F991F0A
:10084000FC01EA57FF4FA591B491FC01E458FF4F1A
:10085000859194918FB7F894EC91E22BEC938FBF34
:100860008DE090E0909307028093060264E371E0CC
:1008700080E092E00C94F302CF93DF93CDB7DEB724
:100880002E970FB6F894DEBF0FBECDBF789484B517
:10089000826084BD84B5816084BD85B5826085BD7C
:1008A00085B5816085BD80916E00816080936E000A
:1008B00010928100809181008260809381008091FC
:1008C00081008160809381008091800081608093AD
:1008D00080008091B10084608093B1008091B0006D
:1008E00081608093B00080917A00846080937A0068
:1008F00080917A00826080937A0080917A00816092
:1009000080937A0080917A00806880937A001092B8
:10091000C100E0917301F091740182E08083E09165
:100920006F01F09170011082E0917101F0917201FC
:100930008FEC808310927B01E0917701F091780138
:1009400086E08083E0917501F0917601808180617D
:100950008083E0917501F0917601808188608083C9
:10096000E0917501F0917601808180688083E0914B
:100970007501F091760180818F7D808380E0E82E83
:1009800080E0F82E18861F821A8619861C861B8620
:1009900050E040E064E371E0CE0107960E94C80297
:1009A00083E691E00E942701181619060CF04BC04F
:1009B0001A8219821C821B821E821D8250E040E036
:1009C00064E371E0CE0101960E94C8020E94D90042
:1009D00097FD1EC08A309105D9F08D871E860D8146
:1009E0001E810F5F1F4FB801CE0101960E94A00229
:1009F000882361F329813A818D819E81BE01635FE5
:100A00007F4F820F931F0E94E2071E830D83DECF6C
:100A1000BE016F5F7F4FCE0107960E945F02CE013D
:100A200001960E94980287E291E00E9452024B8553
:100A30005C856F81788583E691E00E94890082E37E
:100A400091E00E945202BE01695F7F4F80E092E018
:100A50000E945F02CE0107960E9498021A821982B4
:100A60001C821B821E821D8268E072E0CE0101960C
:100A70000E94040318861F821A8619861C861B860C
:100A800060E072E0CE0107960E940403BE016F5F32
:100A90007F4FCE0107960E942202182FCE010796A3
:100AA0000E949802CE0101960E9498021123C9F07B
:100AB00085E391E00E94520282E391E00E9452029B
:100AC00060E0809106020E94D601E114F10409F46D
:100AD00059CF0E943301882309F454CF0E940000AB
:100AE00051CF18861F821A8619861C861B866EE0D7
:100AF00072E0CE0107960E9404031A8219821C82BA
:100B00001B821E821D8260E072E0CE0101960E946F
:100B10000403BE01695F7F4FCE0101960E9422024D
:100B2000182FCE0101960E949802CE0107960E94CE
:100B30009802112351F288E491E00E94520282E36C
:100B400091E00E94520261E0BCCF80E092E00E94FE
:100B5000980288E092E00E9498028EE092E00C9465
:100B600098022F923F924F925F926F927F928F9254
:100B70009F92AF92BF92CF92DF92EF92FF920F932C
:100B80001F93CF93DF93CDB7DEB7CA1BDB0B0FB636
:100B9000F894DEBF0FBECDBF09942A8839884888F3
:100BA0005F846E847D848C849B84AA84B984C88489
:100BB000DF80EE80FD800C811B81AA81B981CE0F80
:100BC000D11D0FB6F894DEBF0FBECDBFED01089565
:100BD000EE0FFF1F0590F491E02D09940F931F93E2
:100BE000CF93DF938230910510F482E090E0E091A2
:100BF0001602F091170230E020E0B0E0A0E030975C
:100C000099F42115310509F44AC0281B390B243009
:100C10003105D8F58A819B816115710589F1FB0148
:100C200093838283FE0111C040815181028113812F
:100C300048175907E0F04817590799F4109761F0E1
:100C400012960C93129713961C933296CF01DF9154
:100C5000CF911F910F9108950093160210931702E0
:100C6000F4CF2115310551F04217530738F0A9018F
:100C7000DB019A01BD01DF01F801C1CFEF01F9CF1E
:100C80009093170280931602CDCFFE01E20FF31F5F
:100C9000819391932250310939832883D7CF2091B2
:100CA000140230911502232B41F42091020130915E
:100CB000030130931502209314022091000130911A
:100CC00001012115310541F42DB73EB740910401D2
:100CD00050910501241B350BE0911402F09115028F
:100CE000E217F307A0F42E1B3F0B2817390778F003
:100CF000AC014E5F5F4F2417350748F04E0F5F1F62
:100D00005093150240931402819391939FCFF0E08A
:100D1000E0E09CCFCF93DF930097E9F0FC0132979E
:100D200013821282A0911602B0911702ED0130E0F9
:100D300020E01097A1F420813181820F931F209130
:100D40001402309115022817390709F061C0F09399
:100D50001502E0931402DF91CF910895EA01CE17B6
:100D6000DF07E8F54A815B819E0141155105B1F726
:100D7000E901FB83EA8349915991C40FD51FEC1710
:100D8000FD0761F4808191810296840F951FE9012E
:100D900099838883828193819B838A83F0E0E0E05A
:100DA00012968D919C9113970097B9F52D913C91D6
:100DB0001197CD010296820F931F2091140230915A
:100DC00015022817390739F6309751F51092170296
:100DD00010921602B0931502A0931402BCCFD383D5
:100DE000C28340815181840F951FC817D90761F4D0
:100DF0004E5F5F4F88819981480F591F518340830F
:100E00008A819B81938382832115310509F0B0CFBC
:100E1000F0931702E09316029ECFFD01DC01C0CFD4
:100E200013821282D7CFB0E0A0E0E9E1F7E00C94A2
:100E3000B3058C01009751F4CB010E94EE058C01A3
:100E4000C801CDB7DEB7E0E10C94CF05FC01E60F99
:100E5000F71F9C0122503109E217F30708F49DC0E7
:100E6000D901CD91DC911197C617D70798F0C530FD
:100E7000D10530F3CE0104978617970708F3C61BF8
:100E8000D70B2297C193D1936D937C93CF010E948E
:100E90008A06D6CF5B01AC1ABD0A4C018C0E9D1E92
:100EA000A0911602B0911702512C412CF12CE12C8B
:100EB000109731F5809114029091150288159905CB
:100EC00009F05CC04616570608F058C08091000132
:100ED00090910101009741F48DB79EB740910401B4
:100EE00050910501841B950BE817F90708F055C0D0
:100EF000F0931502E0931402F90171836083A0CF8F
:100F00008D919C91119712966C90129713967C90EC
:100F10001397A815B90559F56C0142E0C40ED11C10
:100F2000CA14DB0420F1AC014A195B09DA011296FC
:100F3000159780F06282738251834083D9016D934B
:100F40007C93E114F10471F0D7011396FC93EE93B6
:100F5000129776CF22968C0F9D1FF9019183808383
:100F6000F301EFCFF0931702E093160269CF481612
:100F7000590608F42C017D01D3019ACFCB010E94C0
:100F8000EE057C01009749F0AE01B8010E94D00740
:100F9000C8010E948A06870153CF10E000E050CFBD
:100FA000FB01DC0102C001900D9241505040D8F786
:100FB0000895FB01DC018D91019080190110D9F396
:100FC000990B0895FB01DC0101900D920020E1F7DF
:100FD000089510E0CDE5D0E004C0FE010E94E805D0
:100FE0002196CE35D107C9F7F894FFCF000018023B
:100FF00080000000000069018900B600B6012701E9
:10100000C50019016C6564206F6E006C6564206F0B
:1010100066660052656365697665643A20000D0A6C
:101020000053657474696E67204C454420746F20CA
:101030004F46460053657474696E67204C454420E2
:06104000746F204F4E000A
:107E0000112484B714BE81FFF0D085E080938100F7
:107E100082E08093C00088E18093C10086E0809377
:107E2000C20080E18093C4008EE0C9D0259A86E02C
:107E300020E33CEF91E0309385002093840096BBD3
:107E4000B09BFECF1D9AA8958150A9F7CC24DD24C4
:107E500088248394B5E0AB2EA1E19A2EF3E0BF2EE7
:107E6000A2D0813461F49FD0082FAFD0023811F036
:107E7000013811F484E001C083E08DD089C08234E0
:107E800011F484E103C0853419F485E0A6D080C0E4
:107E9000853579F488D0E82EFF2485D0082F10E0AE
:107EA000102F00270E291F29000F111F8ED06801E7
:107EB0006FC0863521F484E090D080E0DECF843638
:107EC00009F040C070D06FD0082F6DD080E0C81688
:107ED00080E7D80618F4F601B7BEE895C0E0D1E017
:107EE00062D089930C17E1F7F0E0CF16F0E7DF06D8
:107EF00018F0F601B7BEE89568D007B600FCFDCFD4
:107F0000A601A0E0B1E02C9130E011968C91119780
:107F100090E0982F8827822B932B1296FA010C0160
:107F200087BEE89511244E5F5F4FF1E0A038BF0790
:107F300051F7F601A7BEE89507B600FCFDCF97BE46
:107F4000E89526C08437B1F42ED02DD0F82E2BD052
:107F50003CD0F601EF2C8F010F5F1F4F84911BD097
:107F6000EA94F801C1F70894C11CD11CFA94CF0C13
:107F7000D11C0EC0853739F428D08EE10CD085E9AC
:107F80000AD08FE07ACF813511F488E018D01DD067
:107F900080E101D065CF982F8091C00085FFFCCF94
:107FA0009093C60008958091C00087FFFCCF809118
:107FB000C00084FD01C0A8958091C6000895E0E648
:107FC000F0E098E1908380830895EDDF803219F02E
:107FD00088E0F5DFFFCF84E1DECF1F93182FE3DFCA
:107FE0001150E9F7F2DF1F91089580E0E8DFEE27F6
:047FF000FF270994CA
:027FFE00040479
:00000001FF
