:020000040000FA
:100000000C945E000C946A050C9443050C948600D5
:100010000C9486000C9486000C9486000C94860048
:100020000C9486000C9486000C9486000C94860038
:100030000C9486000C9486000C9486000C94860028
:100040000C94F9040C9486000C9486000C948600A1
:100050000C9486000C9486000C9486000C94860008
:100060000C9491050C9486000000000024002700E9
:100070002A0000000000250028002B0004040404CE
:100080000404040402020202020203030303030342
:10009000010204081020408001020408102001021F
:1000A00004081020000000080002010000030407FB
:1000B0000000000000000000B006B50811241FBEBB
:1000C000CFEFD8E0DEBFCDBF22E0A6E4B1E001C0B3
:1000D0001D92A933B207E1F711E0A0E0B1E0ECE630
:1000E000F6E102C005900D92A634B107D9F710E0F1
:1000F000CDE5D0E004C02197FE010E943109CC3546
:10010000D107C9F70E94F6060C94290B0C94000045
:1001100008950895AF92BF92CF92DF92EF92FF922F
:100120000F931F93CF93DF936C017B018B01040F1F
:10013000151FEB015E01AE18BF08C017D10759F0BB
:100140006991D601ED91FC910190F081E02DC601FD
:100150000995892B79F7C501DF91CF911F910F91F7
:10016000FF90EF90DF90CF90BF90AF90089590E018
:10017000FC01EC55FF4F2491FC01E057FF4F3491F7
:10018000FC01E458FF4FE491EE23C9F0222339F03B
:10019000233001F1A8F4213019F1223029F1F0E0E7
:1001A000EE0FFF1FEE58FF4FA591B4918FB7F89453
:1001B000EC91611126C030953E233C938FBF08958A
:1001C0002730A9F02830C9F0243049F78091800009
:1001D0008F7D03C0809180008F7780938000DFCF78
:1001E00084B58F7784BDDBCF84B58F7DFBCF8091C5
:1001F000B0008F778093B000D2CF8091B0008F7D18
:10020000F9CF3E2BDACFCF93DF9390E0FC01E0579C
:10021000FF4F249184589F4FFC0184918823D1F093
:1002200090E0880F991FFC01E859FF4FA591B49108
:10023000FC01EE58FF4FC591D491623071F49FB725
:10024000F8943C91822F809583238C93E8812E2B08
:1002500028839FBFDF91CF9108958FB7F894EC91D9
:100260002E2B2C938FBFF6CF3FB7F8948091FB01D4
:100270009091FC01A091FD01B091FE0126B5A89BD3
:1002800005C02F3F19F00196A11DB11D3FBFBA2F28
:10029000A92F982F8827BC01CD01620F711D811DE8
:1002A000911D42E0660F771F881F991F4A95D1F76D
:1002B00008958F929F92AF92BF92CF92DF92EF926A
:1002C000FF924B015C010E9434016B017C010E9492
:1002D00034016C197D098E099F09683E73408105C0
:1002E0009105A8F321E0821A9108A108B10888EECF
:1002F000C80E83E0D81EE11CF11C81149104A104F6
:10030000B10429F7FF90EF90DF90CF90BF90AF90AE
:100310009F908F9008950895089520918901260F48
:100320003327331F21323105ECF42091D201FC0137
:1003300090E080E0243069F082E00895A091890186
:100340002191AC0147595E4FA40FB52FB11D2C93DD
:100350000196861798F380918901680F609389014F
:1003600080E0089581E008951092D20181E08093A9
:10037000D1011092AC0161E082E10E94B70061E01E
:1003800083E10E94B700E9EBF0E080818E7F8083FB
:1003900080818D7F808388E48093B80085E480939A
:1003A000BC000895CF93DF9391E090936801882378
:1003B000B9F0C091B800D091BA008091BC008A7B9E
:1003C0008093BC0060E082E10E94B70060E083E1BE
:1003D0000E94B7000E94B401D093BA00C093B80045
:1003E000DF91CF9108950895E09106028091050272
:1003F000E81730F4F0E0E85BFE4F808190E008956C
:100400008FEF9FEF089590910602809105022FEFE4
:100410003FEF981748F4E92FF0E0E85BFE4F2081AA
:1004200030E09F5F90930602C90108958091050214
:1004300090910602891B990B0895CF92DF92EF925B
:10044000FF920F931F93CF93DF937C01CB018A011F
:100450002091D801222389F0EB016B01C40ED51E37
:10046000CC15DD0569F06991D701ED91FC91019002
:10047000F081E02DC7010995F3CF642F0E948D0113
:10048000C801DF91CF911F910F91FF90EF90DF9006
:10049000CF900895CF93DF931F92CDB7DEB76983D6
:1004A0002091D8012223F9F020910302203258F044
:1004B00021E030E0FC013383228390E080E00F9064
:1004C000DF91CF91089580910402E82FF0E0E75288
:1004D000FE4F998190838F5F809304028093030283
:1004E00081E090E0ECCF61E0CE0101960E948D01A9
:1004F000F7CFCF92DF92EF92FF920F931F93CF939C
:10050000DF93FC01C48121E02093D801C093F9015D
:1005100010920402109203028385682B8FE092E010
:100520000E944A02D0910302D13208F092C00E9488
:1005300034016B017C018091D201811165C082E0A0
:100540008093D20181E08093D1018FEF8093D0011D
:100550001092CF01D093CE01A9EDB1E0EEEAF1E027
:1005600080E0D81385C01092AD018091AD01CC0F11
:10057000C82BC093AD018091AC01813009F07CC0E3
:100580001092AC010E9434016B017C018091AD019D
:100590008093BB008091D4019091D501A091D601A8
:1005A000B091D701892B8A2B8B2B99F00E943401B3
:1005B0000091D4011091D5012091D6013091D7013D
:1005C0006C197D098E099F09061717072807390737
:1005D000E0F18091BC0083FDD9CF85EC8093BC0015
:1005E0000E9434016B017C018091D201823009F4B8
:1005F00045C08091D0018F3F61F18091D001803260
:1006000041F18091D00125C08091D4019091D50114
:10061000A091D601B091D701892B8A2B8B2B09F49D
:100620008ACF0E9434010091D4011091D50120910C
:10063000D6013091D7016C197D098E099F090617E3
:1006400017072807390708F076CF8091D3010E9459
:10065000D20110920402109203021092D801DF918D
:10066000CF911F910F91FF90EF90DF90CF90089561
:100670009D9191938F5F75CF85EEB0CF8091D4011E
:100680009091D501A091D601B091D701892B8A2BE9
:100690008B2B09F4A9CF0E9434010091D401109151
:1006A000D5012091D6013091D7016C197D098E09B1
:1006B0009F09061717072807390708F095CFC5CFF8
:1006C00090E080E0089580910001882349F08091B6
:1006D000460190914701019690934701809346010E
:1006E00008950F931F93CF938C01C62F0E94790218
:1006F0006C2F6460C8010E9479026C2F6B7FC80167
:100700000E94790283EC90E00197F1F7CF911F915D
:100710000F9108950F931F93CF93DF938C01D62FE2
:10072000C42F607F642B0E94710380E1D89FB001C9
:1007300011246C2BC801DF91CF911F910F910C9464
:100740007103CF93DF93CDB7DEB728970FB6F89438
:10075000DEBF0FBECDBF98E0EBE0F1E0DE01119609
:1007600001900D929A95E1F790913102961708F455
:100770006FEF262F30E0220F331F41E050E04C0F87
:100780005D1F240F351FF9016081680F606840E02C
:1007900089E292E028960FB6F894DEBF0FBECDBF77
:1007A000DF91CF910C948A0341E00E948A0381E09B
:1007B00090E008958F929F92AF92BF920F931F93F4
:1007C000CF93DF93CDB7DEB7A1970FB6F894DEBF16
:1007D0000FBECDBF19A2423008F44AE08E010F5D72
:1007E0001F4F842E912CB12CA12CA50194010E94A5
:1007F000F008E62FB901CA01EA3044F5E05DD801FE
:10080000EE938D01232B242B252B79F790E080E0AC
:10081000109769F0FD0101900020E9F73197AF01D1
:100820004A1B5B0BBD0189E292E00E948A00A196FF
:100830000FB6F894DEBF0FBECDBFDF91CF911F91F1
:100840000F91BF90AF909F908F900895E95CD7CFA4
:10085000CF92DF92EF92FF9261E08BE00E94A103C2
:10086000C0904601D09047010D2C000CEE08FF0807
:100870004AE0C701B601F7FE0EC041E06DE289E231
:1008800092E00E948A0366277727CB016C197D09C5
:100890008E099F094AE0FF90EF90DF90CF900C9473
:1008A000DA03FC0180819181009711F00C94D30947
:1008B0000895EF92FF920F931F93CF93DF93EC0174
:1008C0007B018A0188819981009729F02A813B81E7
:1008D0002417350788F4B8016F5F7F4F0E945C0AC8
:1008E000009791F0998388831B830A832C813D8133
:1008F000232B11F4FC0110821D830C83B701888126
:1009000099810E94220B0CC088819981009711F077
:100910000E94D309198218821D821C821B821A82AE
:10092000CE01DF91CF911F910F91FF90EF9008952D
:100930008091000160E0882399F0809125020E9457
:10094000B70061E0809127020E94B7001092000179
:1009500045E050E061E371E08BE192E00C945904D2
:10096000809127020E94B70061E0809125020E94D9
:10097000B70081E08093000145E050E067E371E05B
:10098000EBCF85ED8093BC008091D4019091D5018F
:10099000A091D601B091D7010796A11DB11D23E00A
:1009A000B695A795979587952A95D1F72091BC0084
:1009B00024FD03C01092D20108954091D4015091BA
:1009C000D5016091D6017091D701452B462B472B5D
:1009D00069F30097A105B10541F025E32A95F1F7E8
:1009E00000000197A109B109E1CF8091D3010C94D6
:1009F000D2011F920F920FB60F9211242F933F93A3
:100A00008F939F93AF93BF938091070290910802B9
:100A1000A0910902B0910A023091FA0123E0230F5C
:100A20002D3758F50196A11DB11D2093FA01809331
:100A3000070290930802A0930902B0930A028091E2
:100A4000FB019091FC01A091FD01B091FE01019686
:100A5000A11DB11D8093FB019093FC01A093FD01AA
:100A6000B093FE01BF91AF919F918F913F912F91D4
:100A70000F900FBE0F901F90189526E8230F029637
:100A8000A11DB11DD2CF1F920F920FB60F9211244C
:100A90002F933F934F935F936F937F938F939F9386
:100AA000AF93BF93EF93FF93E0910301F0910401A3
:100AB0000995FF91EF91BF91AF919F918F917F9198
:100AC0006F915F914F913F912F910F900FBE0F90BB
:100AD0001F9018951F920F920FB60F9211242F930B
:100AE0003F934F935F936F937F938F939F93AF93B6
:100AF000BF93EF93FF93E0910101F09102010995FB
:100B0000FF91EF91BF91AF919F918F917F916F91E5
:100B10005F914F913F912F910F900FBE0F901F90BB
:100B200018951F920F920FB60F9211242F933F9397
:100B30004F935F936F937F938F939F93AF93BF93E5
:100B4000EF93FF938091B900887F803609F44AC003
:100B5000F0F5883209F4A7C018F5803109F49BC07C
:100B6000B8F4882309F4F9C0883009F494C0FF91DF
:100B7000EF91BF91AF919F918F917F916F915F9115
:100B80004F913F912F910F900FBE0F901F9018958E
:100B9000883109F488C0803251F78093D00114C0A5
:100BA000803409F49DC040F48033B9F38833F9F6FA
:100BB0008093D00185ECB0C0803509F485C08835BC
:100BC00009F496C0883499F60E94C104D0CF8839C0
:100BD00009F48CC038F5883729F050F4883611F0C4
:100BE000803729F683E08093D2011092AB0157C081
:100BF000883809F47BC0803919F0803809F0B7CF04
:100C00008091AB01803208F071C0E091AB0181E0CE
:100C10008E0F8093AB018091BB00F0E0E557FE4F53
:100C200080833DC0803B39F0E0F4803A09F479C01C
:100C3000883A09F09CCF84E08093D20110928A0117
:100C400010928901E0910102F091020209958091D0
:100C5000890181110FC081E080938901109269019F
:100C600009C0803C09F4A6CF883C09F4A3CF883B97
:100C700009F07DCFE0918A0181E08E0F80938A0197
:100C8000F0E0E759FE4F80818093BB0090918A018C
:100C90008091890129C08091AD018093BB0085ECD2
:100CA0008093BC0064CF9091CF018091CE019817C2
:100CB00058F5E091CF0181E08E0F8093CF01F0E0F5
:100CC000E255FE4F8081E9CFE091CF0181E08E0FA8
:100CD0008093CF018091BB00F0E0E255FE4F80830E
:100CE0009091CF018091CE019817C8F285E8D8CFB6
:100CF000E091CF0181E08E0F8093CF018091BB0006
:100D0000F0E0E255FE4F80838091D10181115CCFEC
:100D100081E08093AC0184EA8093BC001092D20100
:100D200026CF85EC8093BC001092D2018091AB015C
:100D3000803230F4E091AB01F0E0E557FE4F1082D5
:100D40006091AB0170E0E091FF01F09100028BE84F
:100D500091E009951092AB010ACF1092D00134CFE7
:100D6000EFE0F2E01382128288EE93E0A0E0B0E0C0
:100D700084839583A683B78387E191E09183808301
:100D8000E9E2F2E01382128289E291E091838083AA
:100D900080E2848380E1818782E0828713868DE010
:100DA00090E090932802809327028CE090E090934B
:100DB00026028093250282E090E0909324028093A3
:100DC000230283E090E09093220280932102EBE1E2
:100DD000F2E011821082138212821582148245E0A1
:100DE00050E061E371E0CF010C945904CF93DF939D
:100DF00000D000D000D0CDB7DEB7789484B5826043
:100E000084BD84B5816084BD85B5826085BD85B5AE
:100E1000816085BD80916E00816080936E0010922C
:100E200081008091810082608093810080918100A7
:100E30008160809381008091800081608093800038
:100E40008091B10084608093B1008091B000816096
:100E50008093B00080917A00846080937A008091C2
:100E60007A00826080937A0080917A00816080931A
:100E70007A0080917A00806880937A001092C10095
:100E800061E0809127020E94030162E080912302C9
:100E90000E94030161E0809125020E94030162E04B
:100EA000809121020E940301109206021092050215
:100EB00010920402109203020E94B40188E890E0AC
:100EC000909302028093010289E890E090930002DF
:100ED0008093FF0110922E0280913302823018F02D
:100EE00098E090932E028093310262E370E080E0FC
:100EF00090E00E9459016091340289E292E00E94E0
:100F0000790268EE73E080E090E00E94590160E3AE
:100F100089E292E00E9471030BE416E4C801019794
:100F2000F1F760E389E292E00E947103C801019742
:100F3000F1F760E389E292E00E94710383E592E0B9
:100F40000197F1F760E289E292E00E9471036091FB
:100F50002E02606240E089E292E00E948A0384E00F
:100F600080932F0240E06CE089E292E00E948A03C5
:100F700040E061E089E292E00E948A030BE31FE116
:100F8000C8010197F1F782E08093300240E066E00B
:100F900089E292E00E948A0340E062E089E292E006
:100FA0000E948A03C8010197F1F788E08093340218
:100FB00060E089E292E00E94790288E994E09093EF
:100FC000020180930101809169008C7F8093690008
:100FD000E89A83E693E09093040180930301809163
:100FE0006900837F80936900E99A61E0809127021C
:100FF0000E94B7001A8219821C821B821E821D82E7
:1010000060911B0270911C026115710541F04091C5
:101010001F0250912002CE0101960E94590461E006
:1010200080E00E94A1034D815E8169817A8189E21D
:1010300092E00E948A00CE0101960E9451040E9413
:10104000280488EE882E83E0982EA12CB12C00E095
:1010500010E02FB7F8948091070290910802A091B8
:101060000902B0910A022FBF40910B0250910C026D
:1010700060910D0270910E02841B950BA60BB70BAD
:10108000883E9340A105B10508F441C02FB7F894FC
:1010900060910702709108028091090290910A0202
:1010A0002FBF60930B0270930C0280930D029093FC
:1010B0000E02A50194010E941209690160E080E01E
:1010C0000E94A10348E050E06DE371E089E292E004
:1010D0000E948A0060E089E00E94A1030D2C000CB0
:1010E000EE08FF084AE0C701B601F7FE0EC041E076
:1010F0006DE289E292E00E948A0366277727CB019E
:101100006C197D098E099F094AE00E94DA031A8250
:1011100019821C821B821E821D8260911B027091AB
:101120001C026115710541F040911F02509120028F
:10113000CE0101960E94590461E080E00E94A10363
:101140004D815E8169817A8189E292E00E948A0004
:10115000CE0101960E9451040E9428040115110538
:1011600009F477CF0E94000074CF8BE192E00C94D9
:1011700051042F923F924F925F926F927F928F9283
:101180009F92AF92BF92CF92DF92EF92FF920F9316
:101190001F93CF93DF93CDB7DEB7CA1BDB0B0FB620
:1011A000F894DEBF0FBECDBF09942A8839884888DD
:1011B0005F846E847D848C849B84AA84B984C88473
:1011C000DF80EE80FD800C811B81AA81B981CE0F6A
:1011D000D11D0FB6F894DEBF0FBECDBFED0108954F
:1011E000A1E21A2EAA1BBB1BFD010DC0AA1FBB1F2B
:1011F000EE1FFF1FA217B307E407F50720F0A21B9D
:10120000B30BE40BF50B661F771F881F991F1A9409
:1012100069F760957095809590959B01AC01BD0133
:10122000CF010895052E97FB1EF400940E94290912
:1012300057FD07D00E94F00807FC03D04EF40C9431
:10124000290950954095309521953F4F4F4F5F4F5D
:10125000089590958095709561957F4F8F4F9F4F22
:101260000895EE0FFF1F0590F491E02D09940F9360
:101270001F93CF93DF938230910510F482E090E0CA
:10128000E0913702F091380230E020E0B0E0A0E0D9
:10129000309799F42115310509F44AC0281B390B00
:1012A00024303105D8F58A819B816115710589F15A
:1012B000FB0193838283FE0111C040815181028131
:1012C000138148175907E0F04817590799F4109708
:1012D00061F012960C93129713961C933296CF01DD
:1012E000DF91CF911F910F910895009337021093D2
:1012F0003802F4CF2115310551F04217530738F069
:10130000A901DB019A01BD01DF01F801C1CFEF01A5
:10131000F9CF9093380280933702CDCFFE01E20FD0
:10132000F31F819391932250310939832883D7CFBA
:101330002091350230913602232B41F42091070190
:101340003091080130933602209335022091050137
:10135000309106012115310541F42DB73EB740917A
:10136000090150910A01241B350BE0913502F091DF
:101370003602E217F307A0F42E1B3F0B281739079C
:1013800078F0AC014E5F5F4F2417350748F04E0FE1
:101390005F1F5093360240933502819391939FCF04
:1013A000F0E0E0E09CCFCF93DF930097E9F0FC0101
:1013B000329713821282A0913702B0913802ED0168
:1013C00030E020E01097A1F420813181820F931F3B
:1013D00020913502309136022817390709F061C093
:1013E000F0933602E0933502DF91CF910895EA0140
:1013F000CE17DF07E8F54A815B819E014115510553
:10140000B1F7E901FB83EA8349915991C40FD51FD4
:10141000EC17FD0761F4808191810296840F951F7E
:10142000E90199838883828193819B838A83F0E099
:10143000E0E012968D919C9113970097B9F52D914C
:101440003C911197CD010296820F931F2091350296
:10145000309136022817390739F6309751F5109236
:10146000380210923702B0933602A0933502BCCFF7
:10147000D383C28340815181840F951FC817D90738
:1014800061F44E5F5F4F88819981480F591F5183E6
:1014900040838A819B81938382832115310509F0E2
:1014A000B0CFF0933802E09337029ECFFD01DC010C
:1014B000C0CF13821282D7CFB0E0A0E0E2E6FAE01C
:1014C0000C94BB088C01009751F4CB010E943709A2
:1014D0008C01C801CDB7DEB7E0E10C94D708FC0160
:1014E000E60FF71F9C0122503109E217F30708F4B9
:1014F0009DC0D901CD91DC911197C617D70798F0FF
:10150000C530D10530F3CE0104978617970708F34D
:10151000C61BD70B2297C193D1936D937C93CF01B8
:101520000E94D309D6CF5B01AC1ABD0A4C018C0EC8
:101530009D1EA0913702B0913802512C412CF12C04
:10154000E12C109731F58091350290913602881583
:10155000990509F05CC04616570608F058C08091FE
:10156000050190910601009741F48DB79EB7409117
:10157000090150910A01841B950BE817F90708F03F
:1015800055C0F0933602E0933502F9017183608310
:10159000A0CF8D919C91119712966C9012971396F3
:1015A0007C901397A815B90559F56C0142E0C40E5B
:1015B000D11CCA14DB0420F1AC014A195B09DA0121
:1015C0001296159780F06282738251834083D9010D
:1015D0006D937C93E114F10471F0D7011396FC93A1
:1015E000EE93129776CF22968C0F9D1FF90191836F
:1015F0008083F301EFCFF0933802E093370269CF95
:101600004816590608F42C017D01D3019ACFCB016D
:101610000E9437097C01009749F0AE01B8010E9491
:10162000190BC8010E94D309870153CF10E000E0D5
:1016300050CFFB01DC0102C001900D92415050409F
:10164000D8F70895FB01DC0101900D920020E1F72D
:10165000089510E0CDE5D0E004C0FE010E943109FC
:101660002196CE35D107C9F7F894FFCF018B018BB6
:101670000100003902800000004000140054000006
:101680000000004A021D026003F30116020302F487
:101690000100000000D4038A0060038C01526564DD
:1016A000202000477265656E0054696D65287329B6
:0216B0003A00FE
:107E0000112484B714BE81FFF0D085E080938100F7
:107E100082E08093C00088E18093C10086E0809377
:107E2000C20080E18093C4008EE0C9D0259A86E02C
:107E300020E33CEF91E0309385002093840096BBD3
:107E4000B09BFECF1D9AA8958150A9F7CC24DD24C4
:107E500088248394B5E0AB2EA1E19A2EF3E0BF2EE7
:107E6000A2D0813461F49FD0082FAFD0023811F036
:107E7000013811F484E001C083E08DD089C08234E0
:107E800011F484E103C0853419F485E0A6D080C0E4
:107E9000853579F488D0E82EFF2485D0082F10E0AE
:107EA000102F00270E291F29000F111F8ED06801E7
:107EB0006FC0863521F484E090D080E0DECF843638
:107EC00009F040C070D06FD0082F6DD080E0C81688
:107ED00080E7D80618F4F601B7BEE895C0E0D1E017
:107EE00062D089930C17E1F7F0E0CF16F0E7DF06D8
:107EF00018F0F601B7BEE89568D007B600FCFDCFD4
:107F0000A601A0E0B1E02C9130E011968C91119780
:107F100090E0982F8827822B932B1296FA010C0160
:107F200087BEE89511244E5F5F4FF1E0A038BF0790
:107F300051F7F601A7BEE89507B600FCFDCF97BE46
:107F4000E89526C08437B1F42ED02DD0F82E2BD052
:107F50003CD0F601EF2C8F010F5F1F4F84911BD097
:107F6000EA94F801C1F70894C11CD11CFA94CF0C13
:107F7000D11C0EC0853739F428D08EE10CD085E9AC
:107F80000AD08FE07ACF813511F488E018D01DD067
:107F900080E101D065CF982F8091C00085FFFCCF94
:107FA0009093C60008958091C00087FFFCCF809118
:107FB000C00084FD01C0A8958091C6000895E0E648
:107FC000F0E098E1908380830895EDDF803219F02E
:107FD00088E0F5DFFFCF84E1DECF1F93182FE3DFCA
:107FE0001150E9F7F2DF1F91089580E0E8DFEE27F6
:047FF000FF270994CA
:027FFE00040479
:00000001FF
