:100000000C945E000C9486000C9486000C94860080
:100010000C9486000C9486000C9486000C94860048
:100020000C9486000C9486000C9486000C94860038
:100030000C9486000C9486000C9486000C94860028
:100040000C94D6030C9486000C94A4030C947E03A9
:100050000C9486000C9486000C9486000C94860008
:100060000C9486000C948600000000080002010039
:100070000003040700000000000000000000000072
:10008000250028002B0000000000240027002A0083
:10009000040404040404040402020202020203032E
:1000A0000303030301020408102040800102040836
:1000B00010200102040810202004600711241FBE34
:1000C000CFEFD8E0DEBFCDBF23E0A6E0B2E001C0B5
:1000D0001D92A230B207E1F712E0A0E0B1E0E4E83F
:1000E000F7E102C005900D92A630B107D9F710E0F4
:1000F000CDE5D0E004C02197FE010E94A909CC35CE
:10010000D107C9F70E94AD040C94B50B0C94000004
:1001100090E0FC01EC55FF4F249180579F4FFC016C
:100120008491882399F090E0880F991FFC01EA5789
:10013000FF4FA591B491FC01E458FF4F8591949134
:100140008FB7F894EC91E22BEC938FBF089508954C
:10015000AF92BF92CF92DF92EF92FF920F931F93D5
:10016000CF93DF936C017B018B01040F151FEB0113
:100170005E01AE18BF08C017D10759F06991D601CA
:10018000ED91FC910190F081E02DC6010995892B3C
:1001900079F7C501DF91CF911F910F91FF90EF90FB
:1001A000DF90CF90BF90AF900895FC01538D448DA8
:1001B000252F30E0842F90E0821B930B541710F012
:1001C000CF96089501970895FC01918D828D98171F
:1001D00061F0A28DAE0FBF2FB11D5D968C91928DF7
:1001E0009F5F9F73928F90E008958FEF9FEF089528
:1001F000FC01918D828D981731F0828DE80FF11DF1
:10020000858D90E008958FEF9FEF0895FC01918D0B
:10021000228D892F90E0805C9F4F821B91098F7304
:100220009927089581E192E00E94060121E0892B3F
:1002300009F420E0822F089580E090E0892B29F0D6
:100240000E94120181110C9400000895FC01A48DFC
:10025000A80FB92FB11DA35ABF4F2C91848D90E0E8
:1002600001968F739927848FA689B7892C93A089CB
:10027000B1898C91837080648C93938D848D981355
:1002800006C00288F389E02D80818F7D80830895E8
:10029000EF92FF920F931F93CF93DF93EC0181E0D6
:1002A000888F9B8D8C8D98131AC0E889F98980817D
:1002B00085FF15C09FB7F894EE89FF896083E889B0
:1002C000F98980818370806480839FBF81E090E0A2
:1002D000DF91CF911F910F91FF90EF900895F62E2F
:1002E0000B8D10E00F5F1F4F0F731127E02E8C8DC9
:1002F0008E110CC00FB607FCFACFE889F98980810E
:1003000085FFF5CFCE010E942601F1CFEB8DEC0FDA
:10031000FD2FF11DE35AFF4FF0829FB7F8940B8F2A
:10032000EA89FB8980818062CFCFCF93DF93EC0194
:10033000888D8823B9F0AA89BB89E889F9898C91CD
:1003400085FD03C0808186FD0DC00FB607FCF7CF89
:100350008C9185FFF2CF808185FFEDCFCE010E9489
:100360002601E9CFDF91CF91089590E0FC01E85993
:10037000FF4F2491FC01EC55FF4F3491FC01E057F5
:10038000FF4FE491EE23C9F0222339F0233001F12D
:10039000A8F4213019F1223029F1F0E0EE0FFF1F0F
:1003A000E458FF4FA591B4918FB7F894EC91611187
:1003B00026C030953E233C938FBF08952730A9F087
:1003C0002830C9F0243049F7809180008F7D03C028
:1003D000809180008F7780938000DFCF84B58F7706
:1003E00084BDDBCF84B58F7DFBCF8091B0008F774C
:1003F0008093B000D2CF8091B0008F7DF9CF3E2B9B
:10040000DACF1F93CF93DF93182FEB010E94880060
:10041000209739F460E0812FDF91CF911F910C94E8
:10042000B501CF3FD10511F461E0F5CFE12FF0E048
:10043000E859FF4FE491E33031F140F4E130B1F09D
:10044000E230E1F0C038D1057CF7E4CFE73029F1A4
:10045000E83059F1E430B1F78091800080628093F8
:100460008000D0938B00C0938A0004C084B580685C
:1004700084BDC7BDDF91CF911F91089584B580627F
:1004800084BDC8BDF7CF80918000806880938000D4
:10049000D0938900C0938800EDCF8091B000806830
:1004A0008093B000C093B300E5CF8091B00080622C
:1004B0008093B000C093B400DDCF3FB7F894809133
:1004C0000B0290910C02A0910D02B0910E0226B584
:1004D000A89B05C02F3F19F00196A11DB11D3FBF7C
:1004E000BA2FA92F982F8827BC01CD01620F711D4B
:1004F000811D911D42E0660F771F881F991F4A9545
:10050000D1F70895FC0124813581FB014481558197
:1005100024173507E1F4FC0180819181FB016081A2
:1005200071810097D1F061157105A1F4232BC1F001
:10053000FC01808190E008C0232B91F0FB018081B9
:1005400090E091958195910921E0892B09F020E0B7
:10055000822F08950E94A50BF7CF6115710561F7F1
:1005600021E0F6CFFC0101900020E9F73197AF01BF
:10057000481B590BBC0181E192E00C94A800CF9379
:10058000DF930E94B202EC0188E191E00E94B20286
:100590008C0F9D1FDF91CF910895CF93DF93EC01D6
:1005A00088819981009711F00E944B0A1982188264
:1005B0001D821C821B821A82DF91CF910895FC015B
:1005C00080819181009711F00C944B0A08950F934C
:1005D0001F93CF93DF938C01EB01FC01808191810C
:1005E0000097E1F06881798161157105A9F0428178
:1005F00053812C813D814217530770F00E94AE0B4E
:100600008C819D81F801958384831D821C82DF91FA
:10061000CF911F910F9108950E944B0A8881998173
:10062000F801918380838A819B81938382838C816B
:100630009D8195838483198218821B821A82E5CF5B
:10064000EF92FF920F931F93CF93DF93EC017B0107
:100650008A0188819981009729F02A813B8124179A
:10066000350788F4B8016F5F7F4F0E94D40A009766
:10067000C9F0998388831B830A832C813D81232BB6
:1006800011F4FC0110821D830C83B70188819981CC
:100690000E94AE0BCE01DF91CF911F910F91FF9081
:1006A000EF900895CE010E94CD02F4CFCF93DF9357
:1006B000EC01FB018617970749F060817181611594
:1006C000710541F0448155810E942003CE01DF91E4
:1006D000CF9108950E94CD02F9CFFC0111821082C2
:1006E0001382128215821482FB0101900020E9F727
:1006F0003197AF01461B570B0C9420031F920F92AA
:100700000FB60F9211242F933F934F935F936F93E4
:100710007F938F939F93AF93BF93EF93FF9381E169
:1007200092E00E942601FF91EF91BF91AF919F91BE
:100730008F917F916F915F914F913F912F910F908A
:100740000FBE0F901F9018951F920F920FB60F9229
:1007500011242F938F939F93EF93FF93E0912102A6
:10076000F09122028081E0912702F091280282FD1F
:100770001BC0908180912A028F5F8F7320912B0282
:10078000821741F0E0912A02F0E0EF5EFD4F958F75
:1007900080932A02FF91EF919F918F912F910F905B
:1007A0000FBE0F901F9018958081F4CF1F920F926B
:1007B0000FB60F9211242F933F938F939F93AF9374
:1007C000BF938091070290910802A0910902B09115
:1007D0000A023091060223E0230F2D3758F50196C7
:1007E000A11DB11D20930602809307029093080279
:1007F000A0930902B0930A0280910B0290910C021F
:10080000A0910D02B0910E020196A11DB11D809321
:100810000B0290930C02A0930D02B0930E02BF91B5
:10082000AF919F918F913F912F910F900FBE0F909D
:100830001F90189526E8230F0296A11DB11DD2CF57
:10084000CF93DF93E1E1F2E01382128288EE93E02E
:10085000A0E0B0E084839583A683B7838AE091E02B
:100860009183808385EC90E09587848784EC90E089
:100870009787868780EC90E0918B808B81EC90E06D
:10088000938B828B82EC90E0958B848B86EC90E04E
:10089000978B868B118E128E138E148E8AE0809326
:1008A000FD02C6EFD2E01E8287E0888386E089835E
:1008B00085E08A8387E00E94880089810E94880001
:1008C0008A810E9488006AE171E08AEE92E00E94CB
:1008D0006D036AE171E080EF92E00E946D036BE1CD
:1008E00071E08EEA92E00E946D0363E271E084EBB6
:1008F00092E00E946D036DE271E08AEB92E00E944B
:100900006D0367E371E080EC92E00E946D0360E4A8
:1009100071E086EC92E00E946D036DE271E08CEC78
:1009200092E00E946D0368E471E082ED92E00E9423
:100930006D0361E571E088ED92E00E946D036BE16B
:1009400071E08EED92E00E946D0367E371E084EE4A
:1009500092E0DF91CF910C946D03CF93DF93CDB7ED
:10096000DEB7AD970FB6F894DEBF0FBECDBF78945B
:1009700084B5826084BD84B5816084BD85B58260A4
:1009800085BD85B5816085BD80916E008160809355
:100990006E001092810080918100826080938100BE
:1009A00080918100816080938100809180008160CE
:1009B000809380008091B10084608093B100809129
:1009C000B00081608093B00080917A008460809351
:1009D0007A0080917A00826080937A0080917A0018
:1009E000816080937A0080917A00806880937A0099
:1009F0001092C100E0912102F091220282E08083F6
:100A0000E0911D02F0911E021082E0911F02F09110
:100A100020028FEC808310922902E0912502F09150
:100A2000260286E08083E0912302F09124028081F7
:100A300080618083E0912302F091240280818860AC
:100A40008083E0912302F09124028081806880837A
:100A5000E0912302F091240280818F7D8083809138
:100A6000FD020E94880060E08091FD020E94B501B5
:100A70008CE591E00E94BF0282E991E00E94BF02F2
:100A80009AE0892E912CA12CB12C20E0622E20E03E
:100A9000722E80910F029091100226E0289FB001E3
:100AA000299F700D112462557D4F19A618A61BA60B
:100AB0001AA61DA61CA6CE0188960E9456031BA24C
:100AC0001AA21DA21CA21FA21EA2BE01685D7F4F1A
:100AD000CE0182960E945603512C8EA19FA1892B94
:100AE000E1F0EAA0FBA060E270E0C7010E949A0B6F
:100AF000E6E05E9E60011124009739F08C010E192A
:100B00001F090F3F100709F09DC0BE016E5D7F4FAA
:100B1000C60186519D4F0E945603CE0182960E94C7
:100B2000DF026DE871E0CE0101960E946D031BA209
:100B30001AA21DA21CA21FA21EA26AEE72E0CE0182
:100B400082960E945603BE016F5F7F4FCE01829650
:100B50000E948202182FCE0182960E94DF02CE01EF
:100B600001960E94DF02112309F410C16AED71E0C1
:100B7000CE0101960E946D031BA21AA21DA21CA207
:100B80001FA21EA260EF72E0CE0182960E94560361
:100B9000BE016F5F7F4FCE0182960E948202182FA6
:100BA000CE0182960E94DF02CE0101960E94DF02F2
:100BB000112309F4D1C061E08091FD020E94B501CA
:100BC0008EEC91E00E94BF0280910F029091100282
:100BD00001969093100280930F020E945D021B0108
:100BE0002C0188EBC82E8BE0D82EE12CF12C0E9432
:100BF0005D026219730984099509683E7340810595
:100C00009105A8F3F1E0CF1AD108E108F10828EE28
:100C1000220E23E0321E411C511CC114D104E104F8
:100C2000F10429F7CE0188960E94DF026114710455
:100C300009F42FCF0E941201882309F42ACF0E94C1
:100C4000000027CF6AE171E0CE0101960E946D039A
:100C50008EA19FA1009719F178018017910708F4E0
:100C60007C01EAA1FBA1EE0DFF1D308010826AA17C
:100C70007BA16115710509F465C0FB01019000209D
:100C8000E9F73197AF01461B570BCE0101960E9441
:100C900020038AA19BA1E80EF91EF701308253942C
:100CA000BE016F5F7F4FC60186519D4F0E94E702D4
:100CB000CE0101960E94DF020F5F1F4FCEA0DFA082
:100CC000C016D10628F09C2D8D2D6801092F182FF4
:100CD0006AE171E0CE0101960E946D03EEA0FFA0D3
:100CE000CE14DF0418F50E151F0508F47801EAA1EB
:100CF000FBA1EE0DFF1D108110826AA17BA16C0D7E
:100D00007D1D6115710519F1FB0101900020E9F7C6
:100D10003197AF01461B570BCE0101960E9420036D
:100D20008AA19BA1E80EF91EF7011083BE016F5F37
:100D30007F4FCE0182960E94E702CE0101960E946B
:100D4000DF02CBCECE0101960E94CD02A2CFCE0112
:100D500001960E94CD02E4CF8091F4029091F502B9
:100D6000892B09F431CF69EE71E08091F002909106
:100D7000F1020E94A50B892B09F026CF60E080913B
:100D8000FD020E94B5018DED91E01CCF8091EE0235
:100D90009091EF02892B09F417CF6DEE71E08091ED
:100DA000EA029091EB020E94A50B892B09F00CCF6F
:100DB0008091F0029091F102009709F462C00E94C4
:100DC00076076B019B0177FF04C022273327261B80
:100DD000370BB901330F880B990B0E94B40723E33B
:100DE00033E343E250E40E94EF0720E030E040E0CC
:100DF0005FE30E94E5080E9451091B018091F60201
:100E0000D7FC43C061E00E94B50160E08091F70229
:100E10000E94B501B1018091F8020E94010283EFA6
:100E200091E00E94B2020D2C000CEE08FF08F7FEC4
:100E300031C06DE281E192E00E9448012227332710
:100E4000A9012C193D094E095F0919A28E010F5DF8
:100E50001F4FCA01B901A50194010E948709605D75
:100E6000F80162938F01211531054105510589F77C
:100E70000115110519F0C8010E94B20284E092E048
:100E8000A1CE60E070E0CB019CCF60E00E94B50194
:100E900061E0BCCFA701960119A28E010F5D1F4F23
:100EA000CA01B901A50194010E948709605DF8019A
:100EB00062938F01211531054105510589F7D8CF7E
:100EC000CF93DF93CAEED2E02697CE010E94DF02D5
:100ED00082E0CE3AD807C1F780EF92E00E94DF02AD
:100EE0008AEE92E0DF91CF910C94DF021F93FC0118
:100EF00099278827BC01E89411911032E9F3193041
:100F000010F01E30C8F31B3251F01D3249F46894C2
:100F100006C00E949D07610F711D811D911D1191D9
:100F200010531A30B0F33EF490958095709561950A
:100F30007F4F8F4F9F4F1F910895592F482F372F65
:100F4000262F660F771F881F991F660F771F881F30
:100F5000991F620F731F841F951F660F771F881FCD
:100F6000991F0895E89409C097FB3EF490958095E9
:100F7000709561957F4F8F4F9F4F9923A9F0F92F5F
:100F800096E9BB279395F695879577956795B795DD
:100F9000F111F8CFFAF4BB0F11F460FF1BC06F5FC3
:100FA0007F4F8F4F9F4F16C0882311F096E911C0D5
:100FB000772321F09EE8872F762F05C0662371F0F6
:100FC00096E8862F70E060E02AF09A95660F771F0A
:100FD000881FDAF7880F9695879597F908950E94EC
:100FE00002080C9473080E94650838F00E946C088F
:100FF00020F0952311F00C945C080C9462081124E5
:101000000C94A7080E94840870F3959FC1F3950F74
:1010100050E0551F629FF001729FBB27F00DB11D7C
:10102000639FAA27F00DB11DAA1F649F6627B00D0C
:10103000A11D661F829F2227B00DA11D621F739FF5
:10104000B00DA11D621F839FA00D611D221F749F03
:101050003327A00D611D231F849F600D211D822F4A
:10106000762F6A2F11249F5750409AF0F1F0882371
:101070004AF0EE0FFF1FBB1F661F771F881F91509E
:101080005040A9F79E3F510580F00C945C080C94E9
:10109000A7085F3FE4F3983ED4F38695779567956C
:1010A000B795F795E7959F5FC1F7FE2B880F911DC8
:1010B0009695879597F9089597F99F6780E870E06E
:1010C00060E008959FEF80EC089500240A941616BE
:1010D000170618060906089500240A941216130626
:1010E000140605060895092E0394000C11F48823B4
:1010F00052F0BB0F40F4BF2B11F460FF04C06F5FD0
:101100007F4F8F4F9F4F089557FD9058440F551FA5
:1011100059F05F3F71F04795880F97FB991F61F079
:101120009F3F79F087950895121613061406551FF0
:10113000F2CF4695F1DF08C0161617061806991F5C
:10114000F1CF86957105610508940895E894BB2751
:1011500066277727CB0197F908952F923F924F92F8
:101160005F926F927F928F929F92AF92BF92CF9237
:10117000DF92EF92FF920F931F93CF93DF93CDB740
:10118000DEB7CA1BDB0B0FB6F894DEBF0FBECDBFB8
:1011900009942A88398848885F846E847D848C8489
:1011A0009B84AA84B984C884DF80EE80FD800C8192
:1011B0001B81AA81B981CE0FD11D0FB6F894DEBF75
:1011C0000FBECDBFED0108955058BB27AA270E943E
:1011D000FC080C9473080E94650838F00E946C08A3
:1011E00020F039F49F3F19F426F40C9462080EF4B1
:1011F000E095E7FB0C945C08E92F0E94840858F303
:10120000BA17620773078407950720F079F4A6F5EB
:101210000C94A6080EF4E0950B2EBA2FA02D0B010E
:10122000B90190010C01CA01A0011124FF27591B2B
:1012300099F0593F50F4503E68F11A16F040A22F31
:10124000232F342F4427585FF3CF469537952795A2
:10125000A795F0405395C9F77EF41F16BA0B620BA1
:10126000730B840BBAF09150A1F0FF0FBB1F661FE8
:10127000771F881FC2F70EC0BA0F621F731F841F2B
:1012800048F4879577956795B795F7959E3F08F051
:10129000B0CF9395880F08F09927EE0F9795879513
:1012A00008950E9458096894B1110C94A7080895F4
:1012B0000E948C0888F09F5798F0B92F9927B75152
:1012C000B0F0E1F0660F771F881F991F1AF0BA95EA
:1012D000C9F714C0B13091F00E94A608B1E008959A
:1012E0000C94A608672F782F8827B85F39F0B93F8C
:1012F000CCF3869577956795B395D9F73EF490959D
:101300008095709561957F4F8F4F9F4F0895A1E213
:101310001A2EAA1BBB1BFD010DC0AA1FBB1FEE1F6F
:10132000FF1FA217B307E407F50720F0A21BB30BBA
:10133000E40BF50B661F771F881F991F1A9469F736
:1013400060957095809590959B01AC01BD01CF0192
:101350000895EE0FFF1F0590F491E02D09940F936F
:101360001F93CF93DF938230910510F482E090E0D9
:10137000E0910003F091010330E020E0B0E0A0E054
:10138000309799F42115310509F44AC0281B390B0F
:1013900024303105D8F58A819B816115710589F169
:1013A000FB0193838283FE0111C040815181028140
:1013B000138148175907E0F04817590799F4109717
:1013C00061F012960C93129713961C933296CF01EC
:1013D000DF91CF911F910F91089500930003109317
:1013E0000103F4CF2115310551F04217530738F0AE
:1013F000A901DB019A01BD01DF01F801C1CFEF01B5
:10140000F9CF9093010380930003CDCFFE01E20F4B
:10141000F31F819391932250310939832883D7CFC9
:101420002091FE023091FF02232B41F42091020112
:10143000309103013093FF022093FE0220910001BE
:10144000309101012115310541F42DB73EB740918E
:10145000040150910501241B350BE091FE02F0912F
:10146000FF02E217F307A0F42E1B3F0B28173907E2
:1014700078F0AC014E5F5F4F2417350748F04E0FF0
:101480005F1F5093FF024093FE02819391939FCF81
:10149000F0E0E0E09CCFCF93DF930097E9F0FC0110
:1014A000329713821282A0910003B0910103ED01E3
:1014B00030E020E01097A1F420813181820F931F4A
:1014C0002091FE023091FF022817390709F061C010
:1014D000F093FF02E093FE02DF91CF910895EA01BD
:1014E000CE17DF07E8F54A815B819E014115510562
:1014F000B1F7E901FB83EA8349915991C40FD51FE4
:10150000EC17FD0761F4808191810296840F951F8D
:10151000E90199838883828193819B838A83F0E0A8
:10152000E0E012968D919C9113970097B9F52D915B
:101530003C911197CD010296820F931F2091FE02DC
:101540003091FF022817390739F6309751F510927C
:10155000010310920003B093FF02A093FE02BCCFE0
:10156000D383C28340815181840F951FC817D90747
:1015700061F44E5F5F4F88819981480F591F5183F5
:1015800040838A819B81938382832115310509F0F1
:10159000B0CFF0930103E09300039ECFFD01DC0187
:1015A000C0CF13821282D7CFB0E0A0E0EAEDFAE01C
:1015B0000C94AF088C01009751F4CB010E94AF0945
:1015C0008C01C801CDB7DEB7E0E10C94CB08FC017B
:1015D000E60FF71F9C0122503109E217F30708F4C8
:1015E0009DC0D901CD91DC911197C617D70798F00E
:1015F000C530D10530F3CE0104978617970708F35D
:10160000C61BD70B2297C193D1936D937C93CF01C7
:101610000E944B0AD6CF5B01AC1ABD0A4C018C0E5E
:101620009D1EA0910003B0910103512C412CF12C7F
:10163000E12C109731F58091FE029091FF02881500
:10164000990509F05CC04616570608F058C080910D
:10165000000190910101009741F48DB79EB7409130
:10166000040150910501841B950BE817F90708F058
:1016700055C0F093FF02E093FE02F901718360838D
:10168000A0CF8D919C91119712966C901297139602
:101690007C901397A815B90559F56C0142E0C40E6A
:1016A000D11CCA14DB0420F1AC014A195B09DA0130
:1016B0001296159780F06282738251834083D9011C
:1016C0006D937C93E114F10471F0D7011396FC93B0
:1016D000EE93129776CF22968C0F9D1FF90191837E
:1016E0008083F301EFCFF0930103E093000369CF10
:1016F0004816590608F42C017D01D3019ACFCB017D
:101700000E94AF097C01009749F0AE01B8010E9428
:10171000910BC8010E944B0A870153CF10E000E0F3
:1017200050CFFB01DC0102C001900D9241505040AE
:10173000D8F70895FC018191861721F08823D9F705
:10174000992708953197CF010895FB01DC018D9110
:10175000019080190110D9F3990B0895FB01DC0168
:1017600001900D920020E1F7089510E0CDE5D0E062
:1017700004C0FE010E94A9092196CE35D107C9F700
:04178000F894FFCF0B
:10178400000002038000000000004801A800D5000A
:1017940095010601E400F8000D0A006C616D7020EB
:1017A4004F4E006D6F746F72202D3130006D6F7469
:1017B4006F7220313030006C616D70204F464600EE
:1017C4006D6F746F722030006C616D702066756689
:1017D400006D6F746F7220616A6466007772697459
:1017E40065206C616D70204F4E206F72206C616DAE
:1017F40070204F464620746F207475726E206F6E91
:10180400286F72206F66662920746865206C616D8C
:1018140070007772697465206D6F746F72202A6E20
:10182400756D6265722066726F6D202D31303020C7
:10183400746F203130302A20746F207475726E20DA
:101844006F6E2074686520656E67696E65004C6113
:101854006D70207475726E6564204F4E004C616D1E
:1018640070207475726E6564204F4646006D6F7407
:101874006F72004D6F746F72207475726E656420A0
:061884006F6E200025003C
:00000001FF
