:100000000C9462000C947F000C947F000C947F0091
:100010000C947F000C947F000C947F000C947F0064
:100020000C947F000C947F000C947F000C947F0054
:100030000C947F000C947F000C947F000C947F0044
:100040000C94A1010C947F000C947F000C947F0011
:100050000C947F000C947F000C947F000C947F0024
:100060000C94EB010C947F00000000002500280098
:100070002B0000000000240027002A0000000000E0
:1000800023002600290004040404040404040202DA
:100090000202020203030303030301020408102007
:1000A0004080010204081020010204081020000012
:1000B0000008000201000003040700000000000027
:1000C0000000060311241FBECFEFD8E0DEBFCDBF76
:1000D00021E0A0E0B1E001C01D92AE37B207E1F728
:1000E00010E0C2E6D0E004C02197FE010E94CF03D9
:1000F000C136D107C9F70E9413030C94D5030C94A1
:100100000000833081F028F4813099F08230A9F02A
:1001100008958730A9F08830C9F08430B1F4809117
:1001200080008F7D03C0809180008F778093800056
:10013000089584B58F7784BD089584B58F7DFBCFF6
:100140008091B0008F778093B00008958091B000C7
:100150008F7DF9CF1F93CF93DF93282F30E0F901E4
:10016000E255FF4F8491F901E656FF4FD491F90112
:10017000EA57FF4FC491CC23A9F0162F81110E949A
:100180008100EC2FF0E0EE0FFF1FE859FF4FA59123
:10019000B4918FB7F894EC91111108C0D095DE237B
:1001A000DC938FBFDF91CF911F910895DE2BF8CFA5
:1001B00020912701260F3327331F21323105ECF41C
:1001C00020914B01FC0190E080E0243069F082E056
:1001D0000895A09127012191AC01495F5E4FA40FC2
:1001E000B52FB11D2C930196861798F380912701A6
:1001F000680F6093270180E0089581E008950895D5
:100200008FEF9FEF08958FEF9FEF0895809100018A
:1002100090E09195819591090895CF93DF93CB015B
:10022000EA01642F0E94D800CE01DF91CF9108959A
:10023000CF93DF931F92CDB7DEB7698361E0CE0124
:1002400001960E94D80081E090E00F90DF91CF915D
:10025000089590E080E008951F93CF93DF9385ED9C
:100260008093BC008091030190910401A09105014D
:10027000B09106010796A11DB11D23E0B695A79583
:10028000979587952A95D1F72091BC0024FD03C04E
:1002900010924B0152C040910301509104016091B2
:1002A000050170910601452B462B472B69F30097FA
:1002B000A105B10541F025E32A95F1F7000001976A
:1002C000A109B109E1CF80910201C1E0C093010110
:1002D000882399F1D091B8001091BA008091BC00A8
:1002E0008A7B8093BC0060E082E10E94AA0060E00B
:1002F00083E10E94AA0010924B01C0934D0110921D
:100300004C0161E082E10E94AA0061E083E10E9469
:10031000AA008091B9008E7F8093B9008091B900C6
:100320008D7F8093B90088E48093B80085E4809342
:10033000BC001093BA00D093B800DF91CF911F9109
:1003400008951F920F920FB60F9211242F933F938F
:100350008F939F93AF93BF93809176019091770194
:10036000A0917801B09179013091750123E0230FBC
:100370002D3758F50196A11DB11D2093750180936D
:10038000760190937701A0937801B09379018091E1
:10039000710190917201A0917301B0917401019665
:1003A000A11DB11D8093710190937201A0937301FF
:1003B000B0937401BF91AF919F918F913F912F9115
:1003C0000F900FBE0F901F90189526E8230F0296EE
:1003D000A11DB11DD2CF1F920F920FB60F92112403
:1003E0002F933F934F935F936F937F938F939F933D
:1003F000AF93BF93EF93FF938091B900887F8036CE
:1004000009F44AC0F0F5883209F4A5C018F5803126
:1004100009F499C0B8F4882309F4F5C0883009F4C8
:1004200092C0FF91EF91BF91AF919F918F917F917A
:100430006F915F914F913F912F910F900FBE0F9051
:100440001F901895883109F486C0803251F7809347
:100450004A0114C0803409F49BC040F48033B9F3DE
:100460008833F9F680934A0185ECAEC0803509F4F3
:1004700083C0883509F494C0883499F60E942C0111
:10048000D0CF883909F48AC038F5883729F050F47C
:10049000883611F0803729F683E080934B01109263
:1004A000490155C0883809F479C0803919F080387D
:1004B00009F0B7CF80914901803208F06FC0E09118
:1004C000490181E08E0F809349018091BB00F0E0EB
:1004D000E75DFE4F80833BC0803B39F0D0F4803A2B
:1004E00009F477C0883A09F09CCF84E080934B01EF
:1004F0001092280110922701F0E0E0E00995809128
:10050000270181110FC081E080932701109207011C
:1005100009C0803C09F4A8CF883C09F4A5CF883BEA
:1005200009F07FCFE091280181E08E0F80932801B0
:10053000F0E0E95FFE4F80818093BB00909128013D
:100540008091270129C0809170018093BB0085ECC8
:100550008093BC0066CF90916F0180916E019817D7
:1005600058F5E0916F0181E08E0F80936F01F0E00C
:10057000E25BFE4F8081E9CFE0916F0181E08E0F59
:1005800080936F018091BB00F0E0E25BFE4F8083BF
:1005900090916F0180916E019817C8F285E8D8CFCD
:1005A000E0916F0181E08E0F80936F018091BB001D
:1005B000F0E0E25BFE4F808380914D0181115ECFC0
:1005C00081E080934C0184EA8093BC0010924B013F
:1005D00028CF85EC8093BC0010924B01809149019B
:1005E000803230F4E0914901F0E0E75DFE4F108287
:1005F0006091490170E089E291E0F0E0E0E0099566
:10060000109249010ECF10924A0138CF8DE090E050
:1006100090937D0180937C0189E090E090937B0131
:1006200080937A010895789484B5826084BD84B5FE
:10063000816084BD85B5826085BD85B5816085BDDD
:1006400080916E00816080936E0010928100809195
:10065000810082608093810080918100816080931D
:100660008100809180008160809380008091B10042
:1006700084608093B1008091B00081608093B0006D
:1006800080917A00846080937A0080917A00826001
:1006900080937A0080917A00816080937A008091C3
:1006A0007A00806880937A001092C10080917C016A
:1006B00090917D019927FC01E656FF4F24918A57BE
:1006C0009F4FFC018491882399F090E0880F991F37
:1006D000FC01EE58FF4FA591B491FC01E859FF4F82
:1006E000859194918FB7F894EC91E22BEC938FBFA6
:1006F00080917A0190917B019927FC01E656FF4F8A
:1007000024918A579F4FFC0184918823C1F090E087
:10071000880F991FFC01EE58FF4FC591D491FC0141
:10072000E859FF4FA591B4919FB7F8948881E22FC3
:10073000E0958E2388838C91E823EC939FBFC0E0E3
:10074000D0E020917A0130917B013327F901E25505
:10075000FF4F8491F901E656FF4F0491F901EA57E2
:10076000FF4F1491112389F081110E948100E12F24
:10077000F0E0EE0FFF1FE458FF4FA591B491EC910C
:1007800080917C010E2361E019F460E080917C018E
:100790000E94AA002097A9F20E940000D2CFEE0F7B
:0E07A000FF1F0590F491E02D0994F894FFCF0F
:00000001FF
