:020000040000FA
:100000000C9462000C948A000C948A000C948A0070
:100010000C948A000C948A000C94C4130C948A00EB
:100020000C948A000C948A000C948A000C948A0028
:100030000C948A000C948A000C948A000C948A0018
:100040000C94AC070C948A000C947A070C94540717
:100050000C948A000C948A000C948A000C948A00F8
:100060000C94F6070C948A0000000000240027007E
:100070002A0000000000250028002B0000000000DE
:1000800023002600290004040404040404040202DA
:100090000202020203030303030301020408102007
:1000A0004080010204081020010204081020000012
:1000B0000008000201000003040700000000000027
:1000C0000000C71311241FBECFEFD8E0DEBFCDBFA5
:1000D00011E0A0E0B1E0E4ECFBE202C005900D927B
:1000E000AE3AB107D9F723E0AEEAB1E001C01D9204
:1000F000AB3BB207E1F710E0C2E6D0E004C02197C5
:10010000FE010E94CA15C136D107C9F70E94271403
:100110000C94E0150C940000AF92BF92CF92DF9246
:10012000EF92FF920F931F93CF93DF936C017B01AC
:100130008B01040F151FEB015E01AE18BF08C0173D
:10014000D10759F06991D601ED91FC910190F081B0
:10015000E02DC6010995892B79F7C501DF91CF9173
:100160001F910F91FF90EF90DF90CF90BF90AF90D5
:100170000895FC01538D448D252F30E0842F90E0AD
:10018000821B930B541710F0CF9608950197089592
:10019000FC01918D828D981761F0A28DAE0FBF2F5B
:1001A000B11D5D968C91928D9F5F9F73928F90E0B1
:1001B00008958FEF9FEF0895FC01918D828D981720
:1001C00031F0828DE80FF11D858D90E008958FEF5D
:1001D0009FEF0895FC01918D228D892F90E0805C26
:1001E0009F4F821B91098F73992708958AEF92E0A0
:1001F0000E94EA0021E0892B09F420E0822F089573
:100200000E94F60081110C940000089580E090E0B7
:10021000892B11F00C9400010895FC01A48DA80F06
:10022000B92FB11DA35ABF4F2C91848D90E0019638
:100230008F739927848FA689B7892C93A089B18958
:100240008C91837080648C93938D848D981306C0F9
:100250000288F389E02D80818F7D80830895EF925D
:10026000FF920F931F93CF93DF93EC0181E0888F70
:100270009B8D8C8D98131AC0E889F989808185FF40
:1002800015C09FB7F894EE89FF896083E889F989E2
:1002900080818370806480839FBF81E090E0DF91E4
:1002A000CF911F910F91FF90EF900895F62E0B8D37
:1002B00010E00F5F1F4F0F731127E02E8C8D8E11F2
:1002C0000CC00FB607FCFACFE889F989808185FF59
:1002D000F5CFCE010E940D01F1CFEB8DEC0FFD2F7C
:1002E000F11DE35AFF4FF0829FB7F8940B8FEA8914
:1002F000FB8980818062CFCFCF93DF93EC01888D23
:100300008823B9F0AA89BB89E889F9898C9185FD90
:1003100003C0808186FD0DC00FB607FCF7CF8C911E
:1003200085FFF2CF808185FFEDCFCE010E940D01C8
:10033000E9CFDF91CF910895833081F028F48130A7
:1003400099F08230A9F008958730A9F08830C9F07B
:100350008430B1F4809180008F7D03C08091800053
:100360008F7780938000089584B58F7784BD08953A
:1003700084B58F7DFBCF8091B0008F778093B000E4
:1003800008958091B0008F7DF9CFCF93DF93282F10
:1003900030E0F901E255FF4F8491F901E656FF4F35
:1003A000D491F901EA57FF4FC491CC23A1F08111F8
:1003B0000E949C01EC2FF0E0EE0FFF1FE458FF4F6E
:1003C000A591B491EC91ED2381E090E009F480E0F7
:1003D000DF91CF91089580E090E0FACF1F93CF9303
:1003E000DF93282F30E0F901E255FF4F8491F901A6
:1003F000E656FF4FD491F901EA57FF4FC491CC2341
:10040000A9F0162F81110E949C01EC2FF0E0EE0F55
:10041000FF1FEE58FF4FA591B4918FB7F894EC9160
:10042000111108C0D095DE23DC938FBFDF91CF91EF
:100430001F910895DE2BF8CFCF93DF9390E0FC015E
:10044000E656FF4F24918A579F4FFC0184918823E1
:10045000D1F090E0880F991FFC01E859FF4FA5915A
:10046000B491FC01EE58FF4FC591D491623071F404
:100470009FB7F8943C91822F809583238C93E881D9
:100480002E2B28839FBFDF91CF9108958FB7F894CB
:10049000EC912E2B2C938FBFF6CF3FB7F894809121
:1004A0009D0290919E02A0919F02B091A00226B55C
:1004B000A89B05C02F3F19F00196A11DB11D3FBF9C
:1004C000BA2FA92F982F8827BC01CD01620F711D6B
:1004D000811D911D42E0660F771F881F991F4A9565
:1004E000D1F708958F929F92AF92BF92CF92DF92F1
:1004F000EF92FF924B015C010E944D026B017C0167
:100500000E944D026C197D098E099F09683E734057
:1005100081059105A8F321E0821A9108A108B1088C
:1005200088EEC80E83E0D81EE11CF11C81149104F2
:10053000A104B10429F7FF90EF90DF90CF90BF9016
:10054000AF909F908F900895089520912302260FD9
:100550003327331F21323105ECF420916E02FC0168
:1005600090E080E0243069F082E00895A0912302B9
:100570002191AC014F5F5D4FA40FB52FB11D2C939E
:100580000196861798F380912302680F60932302E7
:1005900080E0089581E0089510926E0281E08093DA
:1005A0006D021092480261E082E10E94EE0161E07A
:1005B00083E10E94EE01E9EBF0E080818E7F808391
:1005C00080818D7F808388E48093B80085E4809368
:1005D000BC000895CF93DF9391E0909300028823AD
:1005E000B9F0C091B800D091BA008091BC008A7B6C
:1005F0008093BC0060E082E10E94EE0160E083E154
:100600000E94EE010E94CC02D093BA00C093B800C1
:10061000DF91CF910895089508950895E091FF0125
:100620008091FE01E81730F4F0E0E252FE4F808145
:1006300090E008958FEF9FEF08959091FF018091D2
:10064000FE012FEF3FEF981748F4E92FF0E0E25258
:10065000FE4F208130E09F5F9093FF01C901089514
:100660008091FE019091FF01891B990B0895CF9213
:10067000DF92EF92FF920F931F93CF93DF937C0152
:10068000CB018A0120917402222389F0EB016B01D6
:10069000C40ED51ECC15DD0569F06991D701ED9129
:1006A000FC910190F081E02DC7010995F3CF642FF3
:1006B0000E94A502C801DF91CF911F910F91FF9079
:1006C000EF90DF90CF900895CF93DF931F92CDB737
:1006D000DEB76983209174022223F9F020919702FA
:1006E000203258F021E030E0FC013383228390E097
:1006F00080E00F90DF91CF91089580917502E82FEF
:10070000F0E0EA58FD4F998190838F5F80937502E6
:100710008093970281E090E0ECCF61E0CE010196FA
:100720000E94A502F7CFCF92DF92EF92FF920F9334
:100730001F93CF93DF93FC01C48121E020937402C7
:10074000C093960210927502109297028385682BCF
:1007500087E993E00E946403D0919702D13208F0B8
:1007600092C00E944D026B017C0180916E0281114A
:1007700065C082E080936E0281E080936D028FEF0E
:1007800080936C0210926B02D0936A02A6E7B2E0EB
:10079000EAE4F2E080E0D81385C01092490280912B
:1007A0004902CC0FC82BC093490280914802813086
:1007B00009F07CC0109248020E944D026B017C013E
:1007C000809149028093BB008091700290917102E8
:1007D000A0917202B0917302892B8A2B8B2B99F016
:1007E0000E944D02009170021091710220917202DC
:1007F000309173026C197D098E099F09061717073E
:1008000028073907E0F18091BC0083FDD9CF85EC42
:100810008093BC000E944D026B017C0180916E02AE
:10082000823009F445C080916C028F3F61F1809164
:100830006C02803241F180916C0225C0809170027F
:1008400090917102A0917202B0917302892B8A2B50
:100850008B2B09F48ACF0E944D02009170021091F7
:10086000710220917202309173026C197D098E0918
:100870009F09061717072807390708F076CF8091D8
:100880006F020E94EA021092750210929702109273
:100890007402DF91CF911F910F91FF90EF90DF9045
:1008A000CF9008959D9191938F5F75CF85EEB0CFD6
:1008B0008091700290917102A0917202B0917302C6
:1008C000892B8A2B8B2B09F4A9CF0E944D02009112
:1008D00070021091710220917202309173026C19B2
:1008E0007D098E099F09061717072807390708F0A1
:1008F00095CFC5CF90E080E008950F931F93CF93DD
:100900008C01C62F0E9493036C2F6460C8010E9463
:1009100093036C2F6B7FC8010E94930383EC90E0DC
:100920000197F1F7CF911F910F9108950F931F93A6
:10093000CF93DF938C01D62FC42F607F642B0E944E
:100940007D0480E1D89FB00111246C2BC801DF9198
:10095000CF911F910F910C947D0441E00E94960469
:1009600081E090E00895CF93DF93CDB7DEB728976D
:100970000FB6F894DEBF0FBECDBF98E0E8E0F1E01F
:10098000DE01119601900D929A95E1F79091B303D3
:10099000961708F46FEF262F30E0220F331F41E047
:1009A00050E04C0F5D1F240F351FF9016081680F67
:1009B000606840E08BEA93E028960FB6F894DEBFBB
:1009C0000FBECDBFDF91CF910C949604FB01019037
:1009D0000020E9F73197AF01461B570BDC01ED9181
:1009E000FC910280F381E02D0994CF93DF93BC0149
:1009F0008AEF92E00E94E604EC0160E471E08AEF85
:100A000092E00E94E6048C0F9D1FDF91CF91089524
:100A100083E491E00E94F5048091A3030E94C50144
:100A200021E0009709F020E030910001332379F0B4
:100A3000892B69F48091B301811109C08091B401BF
:100A40009091B50101969093B5018093B4012093E4
:100A5000B301DECF8EE491E00E94F50480910001A5
:100A600061E0811101C060E08091A7030E94EE0166
:100A7000F1CFD1E08AE591E00E94F5048091A503D1
:100A80000E94C501C0E0892B79F4C091B201C11167
:100A90000BC0C09100018091A903CC2341F061E01B
:100AA0000E94EE0110920001C093B201E3CF60E01A
:100AB0000E94EE01D0930001C1E0F6CFCF92DF9209
:100AC000EF92FF920F931F93CF93DF93CDB7DEB7D3
:100AD000A1970FB6F894DEBF0FBECDBF6B017C01AE
:100AE000F7FE3EC041E06DE28BEA93E00E9496047F
:100AF00022273327A9012C193D094E095F0919A2A4
:100B00008E010F5D1F4F9AE0C92ED12CE12CF12CE4
:100B1000CA01B901A70196010E94A815605DF801FC
:100B200062938F01211531054105510589F790E048
:100B300080E0309729F0BF018BEA93E00E94E60441
:100B40000196A1960FB6F894DEBF0FBECDBFDF9120
:100B5000CF911F910F91FF90EF90DF90CF9008956C
:100B6000AC019B0119A28E010F5D1F4F8AE0C82EB8
:100B7000D12CE12CF12CCA01B901A70196010E94E8
:100B8000A815605DF80162938F01211531054105BB
:100B9000510589F790E080E0309799F2BF018BEA28
:100BA00093E00E94E604CDCFC1E085E691E00E948B
:100BB000F50460E080E00E94B30461E771E08BEA35
:100BC00093E00E94E60460E085E00E94B304609137
:100BD00000016C2770E090E080E00E945E0560E01C
:100BE00088E00E94B30466E771E08BEA93E00E941C
:100BF000E60460E08FE00E94B3046091000170E0C1
:100C000090E080E00E945E0561E080E00E94B30415
:100C10006DE771E08BEA93E00E94E60461E08BE00F
:100C20000E94B3046091B4017091B501072E000CCD
:100C3000880B990B0E945E05B8CF85ED8093BC00B0
:100C40008091700290917102A0917202B091730232
:100C50000796A11DB11D23E0B695A7959795879599
:100C60002A95D1F72091BC0024FD03C010926E029A
:100C700008954091700250917102609172027091DA
:100C80007302452B462B472B69F30097A105B1054D
:100C900041F025E32A95F1F700000197A109B10978
:100CA000E1CF80916F020C94EA020F931F93CF93D0
:100CB000DF9361E08091A9030E941C0262E08091B1
:100CC000A5030E941C0261E08091A7030E941C0200
:100CD00062E08091A3030E941C021092FF01109217
:100CE000FE0110927502109297020E94CC028BE0D6
:100CF00093E090932202809321028CE093E0909302
:100D00002602809325021092B0038091B5038230B1
:100D100018F098E09093B0038093B30362E370E01F
:100D200080E090E00E9472026091B6038BEA93E04B
:100D30000E94930368EE73E080E090E00E947202EC
:100D400060E38BEA93E00E947D04CBE4D6E4CE011D
:100D50000197F1F760E38BEA93E00E947D0421970D
:100D6000F1F760E38BEA93E00E947D0483E592E073
:100D70000197F1F760E28BEA93E00E947D046091B5
:100D8000B003606240E08BEA93E00E94960484E046
:100D90008093B10340E06CE08BEA93E00E949604FC
:100DA00040E061E08BEA93E00E949604CBE3DFE150
:100DB000CE010197F1F712E01093B20340E066E034
:100DC0008BEA93E00E94960440E062E08BEA93E0B5
:100DD0000E9496042197F1F788E08093B60360E0C3
:100DE0008BEA93E00E949303E0910A03F0910B03D6
:100DF0001083E0910603F09107031082E09108034D
:100E0000F09109038FEC808310921203E0910E039E
:100E1000F0910F0386E08083E0910C03F0910D03C5
:100E2000808180618083E0910C03F0910D038081CB
:100E300088608083E0910C03F0910D0380818068CD
:100E40008083E0910C03F0910D0380818F7D80837E
:100E500010E000E021E040E850E064E971E089E35F
:100E600095E00E94CB1121E040E850E06AE971E092
:100E70008AE295E00E94CB1121E040E850E061EA6F
:100E800071E088E095E00E94CB1121E040E850E05D
:100E900067EA71E084ED95E00E94CB11DF91CF917C
:100EA0001F910F910C94F8121F920F920FB60F9290
:100EB00011242F933F934F935F936F937F938F935F
:100EC0009F93AF93BF93EF93FF938AEF92E00E94BB
:100ED0000D01FF91EF91BF91AF919F918F917F9104
:100EE0006F915F914F913F912F910F900FBE0F9097
:100EF0001F9018951F920F920FB60F9211242F93E7
:100F00008F939F93EF93FF93E0910A03F0910B036C
:100F10008081E0911003F091110382FD1BC090814C
:100F2000809113038F5F8F7320911403821741F018
:100F3000E0911303F0E0E650FD4F958F809313038B
:100F4000FF91EF919F918F912F910F900FBE0F9076
:100F50001F9018958081F4CF1F920F920FB60F92B9
:100F600011242F933F938F939F93AF93BF938091BF
:100F7000990290919A02A0919B02B0919C023091AB
:100F8000980223E0230F2D3758F50196A11DB11DBE
:100F9000209398028093990290939A02A0939B02C7
:100FA000B0939C0280919D0290919E02A0919F021D
:100FB000B091A0020196A11DB11D80939D02909356
:100FC0009E02A0939F02B093A002BF91AF919F9108
:100FD0008F913F912F910F900FBE0F901F901895FA
:100FE00026E8230F0296A11DB11DD2CF1F920F92AA
:100FF0000FB60F9211242F933F934F935F936F93EC
:101000007F938F939F93AF93BF93EF93FF938091C1
:10101000B900887F803609F44AC0F0F5883209F4B7
:10102000A7C018F5803109F49BC0B8F4882309F4EF
:10103000F9C0883009F494C0FF91EF91BF91AF914E
:101040009F918F917F916F915F914F913F912F91E0
:101050000F900FBE0F901F901895883109F488C02B
:10106000803251F780936C0214C0803409F49DC023
:1010700040F48033B9F38833F9F680936C0285EC41
:10108000B0C0803509F485C0883509F496C088342D
:1010900099F60E941D06D0CF883909F48CC038F526
:1010A000883729F050F4883611F0803729F683E02C
:1010B00080936E021092470257C0883809F47BC0B3
:1010C000803919F0803809F0B7CF8091470280321B
:1010D00008F071C0E091470281E08E0F80934702D3
:1010E0008091BB00F0E0E95DFD4F80833DC0803B17
:1010F00039F0E0F4803A09F479C0883A09F09CCFDD
:1011000084E080936E021092240210922302E091F8
:101110002102F091220209958091230281110FC0D2
:1011200081E0809323021092010209C0803C09F4FF
:10113000A6CF883C09F4A3CF883B09F07DCFE0918E
:10114000240281E08E0F80932402F0E0EF5FFD4FD8
:1011500080818093BB00909124028091230229C05A
:10116000809149028093BB0085EC8093BC0064CFE2
:1011700090916B0280916A02981758F5E0916B028A
:1011800081E08E0F80936B02F0E0E65BFD4F808183
:10119000E9CFE0916B0281E08E0F80936B0280912A
:1011A000BB00F0E0E65BFD4F808390916B02809185
:1011B0006A029817C8F285E8D8CFE0916B0281E007
:1011C0008E0F80936B028091BB00F0E0E65BFD4FD9
:1011D000808380916D0281115CCF81E08093480211
:1011E00084EA8093BC0010926E0226CF85EC809337
:1011F000BC0010926E0280914702803230F4E09180
:101200004702F0E0E95DFD4F10826091470270E017
:10121000E0912502F091260287E292E00995109272
:1012200047020ACF10926C0234CFE091A302F091F2
:10123000A4028081811107C08FEF9FEF9093D201AC
:101240008093D1010895E091A302F091A40205805A
:10125000F681E02D80819181F1CFCF93DF93DC0186
:101260001596ED91FC910680F781E02DA489B58952
:101270008685978520893189EC013D832C83C0893F
:10128000D1899B838A83CF010C9611962D913C9135
:1012900012972817390721F41296DC93CE931197F1
:1012A000158A148A2C9121502C932091CF01211161
:1012B00057C0A285B3858481958126813781EC0151
:1012C0003D832C83C681D7819B838A83CF0102967D
:1012D00011962D913C9112972817390721F41296F7
:1012E000DC93CE931197138612862C9121502C9368
:1012F000C6892091F6022C1710F4C093F60229E05B
:101300002C9FE0011124CE52DD4F0980DA81C02DDF
:10131000D583C4834C815D8157834683AC81BD8175
:1013200013969C938E9312979D838C83A689A29F7C
:10133000D0011124AE52BD4FB387A2878C918F5F2D
:101340008C93A091AE01B091AF01968956968C9185
:10135000891730F581E08093CE01DF91CF91089518
:10136000A091B802B091B902B787A68714962D91C3
:101370003C911597318B208B1496CD91DC9115976C
:101380009B838A8315969C938E93149787EB92E0A8
:10139000958B848B8091B7028F5F8093B702D1CFFA
:1013A00080E0DBCF0FB6F8940F928091D501909139
:1013B000D6010F900FBE08958091CF018F5F80936B
:1013C000CF0108950FB6F8940F92FC01928D0F9003
:1013D0000FBE81E0911180E00895EF92FF920F938C
:1013E0001F93CF93DF93EC010FB6F8940F921E8DED
:1013F0007C0181E1E80EF11C01E01116D4F08FEFC1
:101400008E8F0F900FBE0FB6F8940F921D8D7E0138
:1014100088E0E80EF11C01E01116B4F08FEF8D8F1B
:101420000F900FBEDF91CF911F910F91FF90EF9022
:1014300008958989882319F3C7010E942D09811114
:101440000093CE011150D9CF8885882339F3C70185
:101450000E942D0981110093CE011150DDCFCF9351
:10146000DF93FC01A085B185828193812481358140
:10147000EC013D832C83C481D5819B838A831196A3
:101480008D919C9112978E179F0721F41296DC93F1
:10149000CE931197118610868C9181508C938C91EC
:1014A000DF91CF9108950F931F93CF93DF938C011A
:1014B000FB0180819181D80113968F3F9807F1F449
:1014C000E801AF81B88512968D919C911397938313
:1014D0008283EC01FD83EC83B583A4831396FC9394
:1014E000EE93129711870087F80180818F5F8083C8
:1014F000DF91CF911F910F910895D90112962D91EF
:101500003C911397E9014881598184179507A8F701
:10151000DACFFC0173836283918780874617570770
:1015200090F0421B530B8485958548175907C8F4E2
:10153000BF016E5F7F4F8091DA019091DB010E94C5
:10154000530A80E008954217530718F4621773078F
:1015500040F4BF016E5F7F4F8091DC019091DD010F
:10156000EECF81E00895EF92FF920F931F93CF93F8
:10157000DF93EC018B017A016C857D85600F711F13
:101580009801A701CE010E94890A811107C0DF914D
:10159000CF911F910F91FF90EF9008958C859D85BD
:1015A000080F191FE889F989CE010995E5CFEF9257
:1015B000FF920F931F93CF93DF938C017B01E091F8
:1015C000DC01F091DD010580F681E02DC681D78137
:1015D000CE0102960E942F0A8A8982FF0FC0A701BE
:1015E000B801CE010E94B30AE889F989CE01DF91E2
:1015F000CF911F910F91FF90EF9009948E7F8A8B6E
:10160000F3CFE091DC01F091DD01808181110DC00B
:101610008091DA019091DB019093DD018093DC01F0
:10162000F093DB01E093DA0108950580F681E02D67
:101630006FEF7FEF808191810E94D70AE2CFFF9206
:101640000F931F93CF93DF93EC01F62E0091D501FA
:101650001091D6018091AE019091AF0102960E9447
:101660002F0ACF3FDC07E9F5FF20D9F1E091A60270
:10167000F091A702A091AE01B091AF011596FC9335
:10168000EE931497A091AE01B091AF018481958142
:1016900017969C938E9316978091AE019091AF010F
:1016A000A481B581029613969C938E931297809194
:1016B000AE019091AF01029695838483E091AE01D3
:1016C000F091AF0185EA92E0938782878091A5022D
:1016D0008F5F8093A502DF91CF911F910F91FF90B3
:1016E0000895C00FD11FE091AE01F091AF01D383F7
:1016F000C2836091AE017091AF01C017D10768F449
:101700008091A1029091A2026E5F7F4FDF91CF91F5
:101710001F910F91FF900C94530A8091A302909116
:10172000A4026E5F7F4F0E94530A8091D101909175
:10173000D201C817D90778F6D093D201C093D1014E
:10174000CACFFC010396928381832FEF3FEF34834E
:1017500023839683858390878783108208950F92D1
:101760000FB6F8940F921F9211242F923F924F922E
:101770005F926F927F928F929F92AF92BF92CF9221
:10178000DF92EF92FF920F931F932F933F934F930C
:101790005F936F937F938F939F93AF93BF93CF93F9
:1017A000DF93EF93FF93A091AE01B091AF010DB61F
:1017B0000D920EB60D928091CF01882321F081E029
:1017C0008093CE015FC01092CE01A091AE01B09186
:1017D000AF01E091AE01F091AF012D913C9187896D
:1017E000908D82179307A8F08091AE019091AF0180
:1017F0008091AE019091AF01259A2D9A2FEF87EA43
:1018000091E6215080409040E1F700C000001D9A11
:10181000F5CF2091F60289E001C02150422F50E01F
:10182000849FF001859FF00D1124EE52FD4F9081B1
:10183000992399F3A181B28112960D90BC91A02DAC
:10184000B283A183289FC00111248B529D4FA817FA
:10185000B90729F412968D919C919283818389E036
:10186000849FF001859FF00D1124EE52FD4F018001
:10187000F281E02D868197819093AF018093AE0134
:101880002093F602A091AE01B091AF01CD91CDBFF2
:10189000DD91DEBFFF91EF91DF91CF91BF91AF91CD
:1018A0009F918F917F916F915F914F913F912F9178
:1018B0001F910F91FF90EF90DF90CF90BF90AF906E
:1018C0009F908F907F906F905F904F903F902F9060
:1018D0001F900F900FBE0F9008958F929F92BF920E
:1018E000CF92DF92EF92FF920F931F93CF93DF93EC
:1018F0000FB6F8940F928091CF0181508093CF0161
:101900008091CF01882379F080E00F900FBEDF91A6
:10191000CF911F910F91FF90EF90DF90CF90BF90EC
:101920009F908F9008958091F902882369F3E09049
:10193000BC02F090BD02F0E0E0E039E041E08091CF
:10194000B70281115EC0EF2B11F00E941509E090E3
:10195000CC01F090CD01E114F10409F47DC189E0DE
:10196000D82ECC24C3940FEF1FEF8091CF018111AB
:1019700061C1C091D501D091D6014E018FEF881A77
:10198000980A9092D6018092D50181149104B9F4FD
:101990008091A3029091A4022091A1023091A20211
:1019A0003093A4022093A3029093A2028093A102F9
:1019B0008091D7018F5F8093D7010E941509809194
:1019C000D1019091D201B12C8816990608F026C158
:1019D000E091AE01F091AF01E689DE9EF0011124A5
:1019E000EE52FD4F8081823010F0BB24B394809181
:1019F000CE01811103C0BB2009F425C1C092CE01E4
:101A000022C1D7011696ED91FC91A489B58966850E
:101A1000778580899189EB019D838C838089918969
:101A2000EC017B836A83BF01645F7F4F11960D9148
:101A30001C9112970617170721F412969C938E9308
:101A40001197158A148A8C9181508C93A285B38545
:101A50008481958166817781EC017D836C836681C9
:101A60007781EB019B838A83CF01029611960D91BA
:101A70001C9112970817190721F412967C936E9304
:101A80001197138612862C9121502C93A6892091B0
:101A9000F6022A1710F4A093F6023A9FD0011124FF
:101AA000AE52BD4F11960D90BC91A02DB583A4836D
:101AB00014966D917C9115977783668314966D913A
:101AC0007C911597EB019B838A8315969C938E934B
:101AD00014979689939FD0011124AE52BD4FB387BE
:101AE000A2878C918F5F8C93A091AE01B091AF01D2
:101AF00056968C91981708F422CF4093CE011FCFB1
:101B0000E091A302F091A4020580F681E02D068009
:101B1000F781E02D828193818816990628F49093AD
:101B2000D2018093D10154CFC285D3858481958120
:101B300026813781DC0115963C932E9314972681DC
:101B40003781D90113969C938E931297CF010296F9
:101B500049815A814817590711F43A83298313861A
:101B60001286288121502883A489B5891097F9F01D
:101B70002685378540895189E9015D834C834089F9
:101B80005189EA013B832A8311966D917C911297CA
:101B90009F01245F3F4F6217730721F412965C93F5
:101BA0004E931197158A148A2C9121502C93A68953
:101BB0002091F6022A1710F4A093F602DA9ED001C3
:101BC0001124AE52BD4F11960D90BC91A02DB5833E
:101BD000A48314962D913C911597378326831496F0
:101BE0002D913C911597E9019B838A8315969C93CF
:101BF0008E93149796899D9DD0011124AE52BD4FAE
:101C0000B387A2878C918F5F8C93E091AE01F091A6
:101C1000AF018689981710F0BB24B394E091A3021A
:101C2000F091A402808181116BCF1093D2010093B7
:101C3000D101CECE8091CC019091CD0101969093AF
:101C4000CD018093CC01D1E0ED1AF10809F08DCEE1
:101C50001092CD011092CC018091CE01882309F41D
:101C600053CE0E94AF0B81E050CE0F920FB6F89486
:101C70000F921F9211242F923F924F925F926F9278
:101C80007F928F929F92AF92BF92CF92DF92EF920C
:101C9000FF920F931F932F933F934F935F936F93F5
:101CA0007F938F939F93AF93BF93CF93DF93EF93E4
:101CB000FF93A091AE01B091AF010DB60D920EB69B
:101CC0000D9213BE8091CF018111F9C08091D50191
:101CD0009091D60101969093D6018093D5010097FB
:101CE00081F52091A3023091A4024091A10250916C
:101CF000A2025093A4024093A3023093A202209325
:101D0000A1022091D7012F5F2093D701E091A30278
:101D1000F091A4022081211107C02FEF3FEF3093F3
:101D2000D2012093D1010DC0E091A302F091A40251
:101D30000580F681E02D208131813093D2012093FE
:101D4000D1012091D1013091D2018217930710F473
:101D500020E0A1C020E039E0D32EE091A302F09171
:101D6000A4023081311107C08FEF9FEF9093D20111
:101D70008093D10190C0E091A302F091A40205806C
:101D8000F681E02D0680F781E02D42815381841792
:101D9000950728F45093D2014093D1017CC0A285CD
:101DA000B3854481558166817781EA017D836C83A7
:101DB00066817781EB015B834A83AF014E5F5F4FA2
:101DC00011960D911C9112970417150721F4129684
:101DD0007C936E931197138612863C9131503C93FD
:101DE000A489B5891097F9F06685778500891189EE
:101DF000EB011D830C8300891189E8017B836A83D1
:101E00001196ED90FC901297BF01645F7F4FE6162C
:101E1000F70621F412961C930E931197158A148AD3
:101E20003C9131503C93A6893091F6023A1710F458
:101E3000A093F602DA9ED0011124AE52BD4F119646
:101E40000D90BC91A02DB583A48314966D917C91C7
:101E500015977783668314966D917C911597EB01A6
:101E60005B834A8315965C934E93149746894D9DE8
:101E7000D0011124AE52BD4FB387A2873C913F5F82
:101E80003C93E091AE01F091AF013689431708F41D
:101E900064CF21E062CFE091AE01F091AF01E6891D
:101EA000D9E0ED9FF0011124EE52FD4F8081823088
:101EB00008F021E08091CE0181110EC00AC080910E
:101EC000CC019091CD0101969093CD018093CC01EE
:101ED0006AC0222309F467C08091CF01882321F0D2
:101EE00081E08093CE015FC01092CE01A091AE013F
:101EF000B091AF01E091AE01F091AF012D913C9115
:101F00008789908D82179307A8F08091AE019091F8
:101F1000AF018091AE019091AF01259A2D9A2FEFDC
:101F200087EA91E6215080409040E1F700C0000030
:101F30001D9AF5CF2091F60289E001C02150422F71
:101F400050E0849FF001859FF00D1124EE52FD4F6B
:101F50009081992399F3A181B28112960D90BC9141
:101F6000A02DB283A183289FC00111248B529D4FC5
:101F7000A817B90729F412968D919C9192838183B9
:101F800089E0849FF001859FF00D1124EE52FD4FF2
:101F90000180F281E02D868197819093AF0180933B
:101FA000AE012093F602A091AE01B091AF01CD91A8
:101FB000CDBFDD91DEBFFF91EF91DF91CF91BF915A
:101FC000AF919F918F917F916F915F914F913F91D1
:101FD0002F911F910F91FF90EF90DF90CF90BF90C6
:101FE000AF909F908F907F906F905F904F903F90B9
:101FF0002F901F900F900FBE0F900895CF93DF93F7
:10200000009751F0EC010E94DC09CE010E941F15DF
:10201000DF91CF910C946D0CDF91CF910895CF9308
:10202000DF9300D000D01F92CDB7DEB7E091DC0186
:10203000F091DD011081F12CE12C112329F00580B4
:10204000F681E02DE080F1800E94DC090E94D20937
:102050006C018091D3019091D401C816D90608F083
:1020600085C00E94010BD092D401C092D3010E947E
:102070006D0C0091D8011091D9010FB6F8940F9210
:10208000D8015A96FC905A97FF2009F430C15C960B
:102090004C915C97442301F150E016968D919C91F0
:1020A0001797840F951F17969C938E9316971496E7
:1020B0002D913C9115978217930738F08D919C9143
:1020C000119717969C938E931697F80166817781E6
:1020D000CE0101960E94D015FA94D8015A96FC922E
:1020E0005A9718968C91882339F0C80108960E9457
:1020F0002D0981110E94AF0B0F900FBED980D7FC24
:10210000B8CF0C811D81D8011A968D919C91892B95
:1021100021F0C80102960E942F0A0E94D2097C0178
:102120008091D3019091D401E816F90610F40E9431
:10213000010BF092D401E092D301EFEFED0DE93005
:1021400008F097CF0E2E000CFF0BE355FF4ED80181
:1021500052968C9152970C94CA153011301173110C
:102160005B116D113011301173115B11D092D401DC
:10217000C092D301112351F0CE14DF0470F00E94FD
:102180006D0CB601C7010E94D70A73CFE091DA0146
:10219000F091DB01808161E0811160E00091D80164
:1021A0001091D9010FB6F8940F92D8015D968C91D9
:1021B0005D978F3F11F45D961C92F801868D8F3FDD
:1021C00009F4168E0F900FBED8015A968C915A972B
:1021D00081113CC05296ED91FC91A091AE01B0915D
:1021E000AF011F96FC93EE931E97A091AE01B091A4
:1021F000AF018481958151969C938E9350978091E5
:10220000AE019091AF01A481B5810C9613969C9379
:102210008E9312978091AE019091AF010C969583A9
:102220008483E091AE01F091AF01C8014196958B96
:10223000848BF80181898F5F818BC7018C199D097F
:10224000662311F08FEF9FEF0E941F0BC8010E94C1
:10225000ED090E946D0C81110CCF0E94AF0B09CFCC
:102260008160F801828BCA80DB80648575856C0D86
:102270007D1D9601A701C8010E94890A882309F4DF
:10228000F8CED80152968C91529782FF10C01C96BE
:102290006D917C916C0D7D1DA701C8010E94B30A50
:1022A000D8015096ED91FC91C8010995E2CE8E7F40
:1022B000F801828BF5CF816052968C9352976A8198
:1022C0007B811D967C936E931C976E0D7F1D9701ED
:1022D000A701C8010E94890ACCCE81FD04C0C801B3
:1022E0000E94FE0FC6CE8E7FF801828BC2CE0F9069
:1022F0000FBE9CCE00E010E08091D00181110CC097
:102300008091D202823010F00E94AF0B01151105AE
:1023100099F30E940001F0CF0FB6F8940F92E0916C
:10232000B302F091B402C681D781CE0102960E9419
:102330002F0A8091F90281508093F9028091D00197
:1023400081508093D0010F900FBE8F89988D0E948D
:10235000FE0FCE010E94FE0FCFCFCF93DF93EC0193
:102360000E94DC09CE010E948314EC010E946D0CD6
:10237000209769F4259A2D9A2FEF80E792E021505B
:1023800080409040E1F700C000001D9AF5CFCE01DB
:10239000DF91CF9108957F928F929F92AF92BF92DB
:1023A000CF92DF92EF92FF920F931F93CF93DF9321
:1023B000982EA92E762E872E7A01B22ECA010E945F
:1023C000AD116C01892B09F4F2C088E290E00E9403
:1023D000AD11EC01892B09F4E7C0D88ECF8AA70193
:1023E00065EA70E0C6010E94D91581E0E81AF1089B
:1023F000EF89F88DEE0DFF1D672D782DCE014996E2
:102400009B01285F3F4FDB014D91BD01DC014D93E6
:10241000CD01AB0141505109DA014C91442319F02F
:102420006217730781F718A2BE8AB9A21AA21B8687
:102430001A861D8A1C8AD987C88784E090E08B1988
:1024400091099D878C87DB8BCA8B84E09E012D5D73
:102450003F4FD9011D928A95E9F71FA29082DF01B3
:102460001197AC9211971C92119780E88C93119759
:102470001C9257971C9211971C92B397F983E8838B
:102480000115110519F0F801D183C0830FB6F89436
:102490000F928091F9028F5F8093F9028091AE01D3
:1024A0009091AF01892B09F091C0D093AF01C093F7
:1024B000AE018091F902813081F582ED92E00E94B7
:1024C000A10B8BED92E00E94A10B84EE92E00E94A2
:1024D000A10B8DEE92E00E94A10B89EC92E00E948C
:1024E000A10B80EC92E00E94A10B87EB92E00E948E
:1024F000A10B8EEA92E00E94A10B85EA92E00E9475
:10250000A10B89EC92E09093A4028093A30280EC4B
:1025100092E09093A2028093A1028091F7028F5FD4
:102520008093F702AE898091F6028A1710F4A09387
:10253000F60229E02A9FD0011124AE52BD4F119618
:102540000D90BC91A02DBD83AC8314968D919C9170
:1025500015979F838E831496ED91FC911597CE016C
:1025600002969383828315969C938E931497EE899B
:10257000E29FF0011124EE52FD4FFB87EA87808134
:102580008F5F80830F900FBE8091F802882351F0F7
:10259000E091AE01F091AF0196898E89981710F401
:1025A0000E94AF0B81E004C0C6010E94FE0F8FEFB6
:1025B000DF91CF911F910F91FF90EF90DF90CF901F
:1025C000BF90AF909F908F907F9008958091F80278
:1025D0008111A3CFE091AE01F091AF0196898E8970
:1025E000891708F49ACFD093AF01C093AE0195CF6D
:1025F0000F931F93CF93DF930AEC11E020E040ECA0
:1026000050E067E871E08AE791E10E94CB118130E8
:1026100009F0B3C00FB6F8940F928091D801909151
:10262000D901892B09F04FC08FEB91E00E94A10BDB
:1026300086EB91E00E94A10B8FEB91E09093DD017E
:102640008093DC0186EB91E09093DB018093DA01CB
:1026500081E590E00E94AD11EC01009781F14F9669
:10266000998388838AE08B8F85E08C8F0FB6F894EE
:102670000F92888199812B8D4C8DBC01249F600D18
:10268000711D11247D836C831A8E9B838A83215054
:10269000330B429FB001439F700D1124860F971F8B
:1026A0009F838E838FEF8D8F8E8FCE0108960E9431
:1026B000A10BCE0141960E94A10B0F900FBED093AB
:1026C000D901C093D8010F900FBE8091D80190918D
:1026D000D901892B09F451C008EC11E023E045E54C
:1026E00050E06CE871E08FE090E10E94CB11813006
:1026F00009F043C0F8942FEF3FEF3093D2012093BD
:10270000D1018093F8021092D6011092D501A895BC
:1027100088E190EC0FB6F894A895809360000FBE06
:1027200090936000A091AE01B091AF01CD91CDBF6B
:10273000DD91DEBFFF91EF91DF91CF91BF91AF911E
:102740009F918F917F916F915F914F913F912F91C9
:102750001F910F91FF90EF90DF90CF90BF90AF90BF
:102760009F908F907F906F905F904F903F902F90B1
:102770001F900F900FBE0F90089580910101DF917F
:10278000CF911F910F9108950E94350E1895EAEF91
:10279000F2E01382128288EE93E0A0E0B0E084833E
:1027A0009583A683B78324E131E03183208325EC30
:1027B00030E03587248724EC30E03787268720EC0B
:1027C00030E0318B208B21EC30E0338B228B22ECFC
:1027D00030E0358B248B26EC30E0378B268B118E46
:1027E000128E138E148EE7E9F3E013821282848333
:1027F0009583A683B78386E291E091838083EBEA99
:10280000F3E01382128288E391E09183808380E277
:10281000848380E1818782E0828713868DE090E067
:102820009093AA038093A9038CE090E09093A8036F
:102830008093A70383E090E09093A6038093A50381
:1028400082E090E09093A4038093A303089578948A
:1028500084B5826084BD84B5816084BD85B58260A5
:1028600085BD85B5816085BD80916E008160809356
:102870006E001092810080918100826080938100BF
:1028800080918100816080938100809180008160CF
:10289000809380008091B10084608093B10080912A
:1028A000B00081608093B00080917A008460809352
:1028B0007A0080917A00826080937A0080917A0019
:1028C000816080937A0080917A00806880937A009A
:1028D0001092C10020910601309107018FEF98E01E
:1028E000821B930B90930301809302010E94550673
:1028F0000E94F8120E945506C0E0D0E02097F1F344
:102900000E940001FBCF0F931F93CF93DF93823080
:10291000910510F482E090E0E091B903F091BA03E0
:1029200030E020E0B0E0A0E0309799F421153105C7
:1029300009F44AC0281B390B24303105D8F58A81A7
:102940009B816115710589F1FB0193838283FE01EF
:1029500011C0408151810281138148175907E0F06D
:102960004817590799F4109761F012960C93129733
:1029700013961C933296CF01DF91CF911F910F9147
:1029800008950093B9031093BA03F4CF21153105CC
:1029900051F04217530738F0A901DB019A01BD013C
:1029A000DF01F801C1CFEF01F9CF9093BA03809313
:1029B000B903CDCFFE01E20FF31F81939193225013
:1029C000310939832883D7CF2091B7033091B803D9
:1029D000232B41F420910401309105013093B80379
:1029E0002093B70320910201309103012115310595
:1029F00041F42DB73EB74091060150910701241BC9
:102A0000350BE091B703F091B803E217F307A0F498
:102A10002E1B3F0B2817390778F0AC014E5F5F4F34
:102A20002417350748F04E0F5F1F5093B8034093AB
:102A3000B703819391939FCFF0E0E0E09CCFCF93D9
:102A4000DF930097E9F0FC01329713821282A09184
:102A5000B903B091BA03ED0130E020E01097A1F482
:102A600020813181820F931F2091B7033091B803E9
:102A70002817390709F061C0F093B803E093B70352
:102A8000DF91CF910895EA01CE17DF07E8F54A817B
:102A90005B819E0141155105B1F7E901FB83EA8392
:102AA00049915991C40FD51FEC17FD0761F480813E
:102AB00091810296840F951FE90199838883828111
:102AC00093819B838A83F0E0E0E012968D919C9144
:102AD00013970097B9F52D913C911197CD0102966E
:102AE000820F931F2091B7033091B803281739073D
:102AF00039F6309751F51092BA031092B903B0939A
:102B0000B803A093B703BCCFD383C2834081518164
:102B1000840F951FC817D90761F44E5F5F4F8881F6
:102B20009981480F591F518340838A819B819383E8
:102B300082832115310509F0B0CFF093BA03E093F9
:102B4000B9039ECFFD01DC01C0CF13821282D7CF23
:102B5000A1E21A2EAA1BBB1BFD010DC0AA1FBB1FA1
:102B6000EE1FFF1FA217B307E407F50720F0A21B13
:102B7000B30BE40BF50B661F771F881F991F1A9480
:102B800069F760957095809590959B01AC01BD01AA
:102B9000CF010895EE0FFF1F0590F491E02D0994E9
:102BA000FB01DC0102C001900D9241505040D8F76A
:102BB0000895DC0101C06D9341505040E0F7089545
:102BC000F894FFCF01030000BB0380000000400029
:102BD00014005400000000002F018C00B9007C019B
:102BE000EA00C800DC0000000000640337037A0438
:102BF0000D0330031D030E0300000000AD048C0024
:102C00007A04A4020D0A0054686972642054617346
:102C10006B005365636F6E64205461736B0046698B
:102C2000727374205461736B00466F757274682000
:102C30005461736B005265643A00477265656E3A81
:102C40000020436F756E7465723A0049444C45002C
:102C5000546D7220537663005461736B310054617C
:102C6000736B3220005461736B33005461736B34A7
:022C7000000062
:107E0000112484B714BE81FFF0D085E080938100F7
:107E100082E08093C00088E18093C10086E0809377
:107E2000C20080E18093C4008EE0C9D0259A86E02C
:107E300020E33CEF91E0309385002093840096BBD3
:107E4000B09BFECF1D9AA8958150A9F7CC24DD24C4
:107E500088248394B5E0AB2EA1E19A2EF3E0BF2EE7
:107E6000A2D0813461F49FD0082FAFD0023811F036
:107E7000013811F484E001C083E08DD089C08234E0
:107E800011F484E103C0853419F485E0A6D080C0E4
:107E9000853579F488D0E82EFF2485D0082F10E0AE
:107EA000102F00270E291F29000F111F8ED06801E7
:107EB0006FC0863521F484E090D080E0DECF843638
:107EC00009F040C070D06FD0082F6DD080E0C81688
:107ED00080E7D80618F4F601B7BEE895C0E0D1E017
:107EE00062D089930C17E1F7F0E0CF16F0E7DF06D8
:107EF00018F0F601B7BEE89568D007B600FCFDCFD4
:107F0000A601A0E0B1E02C9130E011968C91119780
:107F100090E0982F8827822B932B1296FA010C0160
:107F200087BEE89511244E5F5F4FF1E0A038BF0790
:107F300051F7F601A7BEE89507B600FCFDCF97BE46
:107F4000E89526C08437B1F42ED02DD0F82E2BD052
:107F50003CD0F601EF2C8F010F5F1F4F84911BD097
:107F6000EA94F801C1F70894C11CD11CFA94CF0C13
:107F7000D11C0EC0853739F428D08EE10CD085E9AC
:107F80000AD08FE07ACF813511F488E018D01DD067
:107F900080E101D065CF982F8091C00085FFFCCF94
:107FA0009093C60008958091C00087FFFCCF809118
:107FB000C00084FD01C0A8958091C6000895E0E648
:107FC000F0E098E1908380830895EDDF803219F02E
:107FD00088E0F5DFFFCF84E1DECF1F93182FE3DFCA
:107FE0001150E9F7F2DF1F91089580E0E8DFEE27F6
:047FF000FF270994CA
:027FFE00040479
:00000001FF
