:100000000C9462000C948A000C948A000C948A0070
:100010000C948A000C948A000C948A000C948A0038
:100020000C948A000C948A000C948A000C948A0028
:100030000C948A000C948A000C948A000C948A0018
:100040000C94D3060C948A000C948A000C948A00B9
:100050000C948A000C948A000C948A000C948A00F8
:100060000C941D070C948A00000000002400270057
:100070002A0000000000250028002B0000000000DE
:1000800023002600290004040404040404040202DA
:100090000202020203030303030301020408102007
:1000A0004080010204081020010204081020000012
:1000B0000008000201000003040700000000000027
:1000C00000003C0811241FBECFEFD8E0DEBFCDBF3B
:1000D00012E0A0E0B1E0EAE3F4E102C005900D9285
:1000E000AC31B107D9F723E0ACE1B2E001C01D9219
:1000F000A636B207E1F710E0C2E6D0E004C02197CF
:10010000FE010E94150AC136D107C9F70E94B20844
:100110000C941B0A0C94000096E0899FD0011124D6
:10012000A551BD4F90967C936E935F9791E0919609
:100130009C939197E0915803F09159039091570344
:10014000992339F0309751F0811108C0809107034D
:100150000994309719F05C968C91FACF0895CF925C
:10016000DF92EF92FF920F931F9396E0899FF00129
:100170001124E551FD4F11A2278D30A12130310509
:1001800051F178F02230310509F451C023303105A6
:1001900009F452C01F910F91FF90EF90DF90CF9024
:1001A00008956623B9F361E070E00E948C002FB7D8
:1001B000F8948091DB029091DC02A091DD02B09175
:1001C000DE022FBF8093430390934403A093450323
:1001D000B0934603DFCF9FB7F894C090DB02D09076
:1001E000DC02E090DD02F090DE029FBF009143034D
:1001F000109144032091450330914603C01AD10A5F
:10020000E20AF30A009155031091560330E020E012
:100210000C151D052E053F0550F462E070E01F919E
:100220000F91FF90EF90DF90CF900C948C006111B4
:10023000B1CF63E070E0F3CF70E060E0F0CF0895FD
:100240000895AF92BF92CF92DF92EF92FF920F93F9
:100250001F93CF93DF936C017B018B01040F151F5C
:10026000EB015E01AE18BF08C017D10759F06991C4
:10027000D601ED91FC910190F081E02DC601099528
:10028000892B79F7C501DF91CF911F910F91FF90D5
:10029000EF90DF90CF90BF90AF900895833081F0C2
:1002A00028F4813099F08230A9F008958730A9F0C0
:1002B0008830C9F08430B1F4809180008F7D03C014
:1002C000809180008F7780938000089584B58F7728
:1002D00084BD089584B58F7DFBCF8091B0008F776A
:1002E0008093B00008958091B0008F7DF9CFCF93B7
:1002F000DF93282F30E0F901E255FF4F8491F90197
:10030000E656FF4FD491F901EA57FF4FC491CC2331
:10031000A1F081110E944E01EC2FF0E0EE0FFF1FC3
:10032000E458FF4FA591B491EC91ED2381E090E06A
:1003300009F480E0DF91CF91089580E090E0FACF5A
:10034000862F0C9477011F93CF93DF93282F30E0F3
:10035000F901E255FF4F8491F901E656FF4FD49120
:10036000F901EA57FF4FC491CC23A9F0162F811150
:100370000E944E01EC2FF0E0EE0FFF1FEE58FF4FF2
:10038000A591B4918FB7F894EC91111108C0D09554
:10039000DE23DC938FBFDF91CF911F910895DE2B79
:1003A000F8CF862F642F0C94A301CF93DF9390E0B6
:1003B000FC01E656FF4F24918A579F4FFC01849120
:1003C0008823C9F090E0880F991FFC01E859FF4F7E
:1003D000A591B491FC01EE58FF4FC591D4916111E4
:1003E0000DC09FB7F8948C91209582238C938881BF
:1003F000282328839FBFDF91CF910895623051F465
:100400009FB7F8943C91822F809583238C93E88149
:100410002E2BEFCF8FB7F894EC912E2B2C938FBF10
:10042000EACF862F642F0C94D5013FB7F8948091C2
:10043000CF029091D002A091D102B091D20226B504
:10044000A89B05C02F3F19F00196A11DB11D3FBF0C
:10045000BA2FA92F982F8827BC01CD01620F711DDB
:10046000811D911D42E0660F771F881F991F4A95D5
:10047000D1F708958F929F92AF92BF92CF92DF9261
:10048000EF92FF924B015C010E9415026B017C010F
:100490000E9415026C197D098E099F09683E734000
:1004A00081059105A8F321E0821A9108A108B108FD
:1004B00088EEC80E83E0D81EE11CF11C8114910463
:1004C000A104B10429F7FF90EF90DF90CF90BF9087
:1004D000AF909F908F900895089520915D02260F10
:1004E0003327331F21323105ECF42091A602FC01A1
:1004F00090E080E0243069F082E00895A0915D02F0
:100500002191AC01435C5D4FA40FB52FB11D2C931D
:100510000196861798F380915D02680F60935D02E3
:1005200080E0089581E008951092A60281E0809312
:10053000A5021092800261E082E10E94A30161E0C5
:1005400083E10E94A301E9EBF0E080818E7F80834C
:1005500080818D7F808388E48093B80085E48093D8
:10056000BC000895CF93DF9391E090933C028823E1
:10057000B9F0C091B800D091BA008091BC008A7BDC
:100580008093BC0060E082E10E94A30160E083E10F
:100590000E94A3010E949402D093BA00C093B800B5
:1005A000DF91CF9108950895E091DA028091D90208
:1005B000E81730F4F0E0E45EFD4F808190E00895AC
:1005C0008FEF9FEF08959091DA028091D9022FEF7B
:1005D0003FEF981748F4E92FF0E0E45EFD4F2081EB
:1005E00030E09F5F9093DA02C90108958091D902AB
:1005F0009091DA02891B990B0895CF92DF92EF92C6
:10060000FF920F931F93CF93DF937C01CB018A015D
:100610002091AC02222389F0EB016B01C40ED51EA0
:10062000CC15DD0569F06991D701ED91FC91019040
:10063000F081E02DC7010995F3CF642F0E946D0270
:10064000C801DF91CF911F910F91FF90EF90DF9044
:10065000CF900895CF93DF931F92CDB7DEB7698314
:100660002091AC022223F9F02091D702203258F0D9
:1006700021E030E0FC013383228390E080E00F90A2
:10068000DF91CF9108958091D802E82FF0E0E355F3
:10069000FD4F998190838F5F8093D8028093D7021A
:1006A00081E090E0ECCF61E0CE0101960E946D0206
:1006B000F7CFCF92DF92EF92FF920F931F93CF93DA
:1006C000DF93FC01C48121E02093AC02C093CD02F2
:1006D0001092D8021092D7028385682B8FED92E09A
:1006E0000E942A03D091D702D13208F092C00E9412
:1006F00015026B017C018091A602811165C082E028
:100700008093A60281E08093A5028FEF8093A402DC
:100710001092A302D093A202ADEAB2E0E2E8F2E0C6
:1007200080E0D81385C01092810280918102CC0FA5
:10073000C82BC093810280918002813009F07CC077
:10074000109280020E9415026B017C01809181024F
:100750008093BB008091A8029091A902A091AA0267
:10076000B091AB02892B8A2B8B2B99F00E9415023A
:100770000091A8021091A9022091AA023091AB0227
:100780006C197D098E099F09061717072807390775
:10079000E0F18091BC0083FDD9CF85EC8093BC0053
:1007A0000E9415026B017C018091A602823009F43F
:1007B00045C08091A4028F3F61F18091A4028032F4
:1007C00041F18091A40225C08091A8029091A902D4
:1007D000A091AA02B091AB02892B8A2B8B2B09F432
:1007E0008ACF0E9415020091A8021091A9022091BF
:1007F000AA023091AB026C197D098E099F09061778
:1008000017072807390708F076CF8091A7020E94C2
:10081000B2021092D8021092D7021092AC02DF916D
:10082000CF911F910F91FF90EF90DF90CF9008959F
:100830009D9191938F5F75CF85EEB0CF8091A80287
:100840009091A902A091AA02B091AB02892B8A2BA8
:100850008B2B09F4A9CF0E9415020091A8021091D8
:10086000A9022091AA023091AB026C197D098E0970
:100870009F09061717072807390708F095CFC5CF36
:1008800090E080E00895FC0101900020E9F73197A5
:10089000AF01481B590BBC018AE593E00C94210180
:1008A0000F931F93CF938C01C62F0E9459036C2F77
:1008B0006460C8010E9459036C2F6B7FC8010E94BD
:1008C000590383EC90E00197F1F7CF911F910F91BD
:1008D00008950F931F93CF93DF938C01D62FC42FCE
:1008E000607F642B0E94500480E1D89FB0011124E6
:1008F0006C2BC801DF91CF911F910F910C94500484
:10090000CF93DF93CDB7DEB728970FB6F894DEBF4D
:100910000FBECDBF98E0E0E2F1E0DE01119601905C
:100920000D929A95E1F790916203961708F46FEF94
:10093000262F30E0220F331F41E050E04C0F5D1FA7
:10094000240F351FF9016081680F606840E08AE577
:1009500093E028960FB6F894DEBF0FBECDBFDF91AF
:10096000CF910C94690460E080E00E94800480E5EF
:1009700091E00E94430461E080E00E9480048EE5E3
:1009800091E00E9443046CE271E080E090E00E94FC
:100990003A029091040180910001981312C0909145
:1009A00005018091010198130CC09091060180917E
:1009B0000201981306C081E0209107019091030184
:1009C000291380E0089560E080E00E9480048CE6B6
:1009D00091E00E94430461E080E00E9480048CE783
:1009E00091E00E94430461E08DE00E94A30168E869
:1009F00073E180E090E00E943A0260E08DE00C94A8
:100A0000A30160E080E00E9480048AE891E00E94F7
:100A1000430461E080E00E9480048AE891E00E9443
:100A20004304E4E0F1E080E2808381838283838376
:100A3000089541E00E94690481E090E008952F92BA
:100A40003F924F925F926F927F928F929F92AF925E
:100A5000BF92CF92DF92EF92FF920F931F93CF93AB
:100A6000DF9304E011E0812C412C512C320143949E
:100A70002224239454E0851609F44AC12092570396
:100A80008FB7F8944091DB025091DC026091DD0257
:100A90007091DE028FBF8091470390914803A0912F
:100AA0004903B0914A03481B590B6A0B7B0B809199
:100AB000530390915403B0E0A0E084179507A60774
:100AC000B70708F01EC1C0E080915103C81760F459
:100AD000E0914D03F0914E03EC0FF11D62E0808137
:100AE0000E94D501CF5FF0CF912C809152039816D0
:100AF00008F05FC0E92CF12CE0914F03F091500316
:100B0000EE0DFF1D61E080810E94D501E0914F0351
:100B1000F0915003EE0DFF1D60E080810E94A30163
:100B2000D301C201092C04C0880F991FAA1FBB1F43
:100B30000A94D2F75C016C01C094D094312C80915E
:100B400051033816F8F4C32DD0E0E0914D03F09135
:100B50004E03EC0FFD1F80810E9477012496CC0F7D
:100B6000DD1FC551DD4F892B41F4888199818A2988
:100B70009B29998388833394E2CF888199818C2142
:100B80009D21F7CFE0914F03F0915003EE0DFF1D33
:100B900061E080810E94A30180914F0390915003F6
:100BA000E80EF91E60E0F70180810E94D501939460
:100BB0009CCFCBEED2E0FE01878D90A1892B31F442
:100BC000148E8FEF9FEF968F858F11A2369693E04C
:100BD000E732F90789F7D12C80915103D81608F034
:100BE00053C0C12CED2CF12CEE0CFF1CF701ED5085
:100BF000FD4F7F0120915203C21608F043C0F70158
:100C0000608171810C2C02C0769567950A94E2F799
:100C1000D29E900111242C0D311DEBEEF2E080E00C
:100C2000458D568D2417350709F470C08F5F3696B1
:100C30008A30B1F760FF24C0EBEEF2E090E080E094
:100C4000448D411118C0E0914B03F0914C03E20F29
:100C5000F31F408156E0589FF001599FF00D112479
:100C6000E551FD4F448F368F258F10A2178E61E01E
:100C70000E94AF0005C0019636968A30910501F7B3
:100C8000C394B8CFD394A8CF80E099A19111892FB4
:100C9000269693E0C732D907C1F79FB7F8944091E1
:100CA000DB025091DC026091DD027091DE029FBF99
:100CB00040934703509348036093490370934A035A
:100CC0008823F9F080910C038823D9F080910A03DE
:100CD00090910B030197A9F4C0910703F801C08319
:100CE000CC2309F4C7CE61E0882D0E94800441E046
:100CF0006C2F8AE593E00E94690483940F5F1F4F75
:100D0000B9CE10925703F8011082B4CE6170B0CF03
:100D1000DF91CF911F910F91FF90EF90DF90CF90D7
:100D2000BF90AF909F908F907F906F905F904F900B
:100D30003F902F90089585ED8093BC008091A8028C
:100D40009091A902A091AA02B091AB020796A11DB1
:100D5000B11D23E0B695A795979587952A95D1F76C
:100D60002091BC0024FD03C01092A602089540917A
:100D7000A8025091A9026091AA027091AB02452B82
:100D8000462B472B69F30097A105B10541F025E3F8
:100D90002A95F1F700000197A109B109E1CF8091EF
:100DA000A7020C94B2021F920F920FB60F92112459
:100DB0002F933F938F939F93AF93BF938091DB02C9
:100DC0009091DC02A091DD02B091DE023091CE0262
:100DD00023E0230F2D3758F50196A11DB11D209357
:100DE000CE028093DB029093DC02A093DD02B093ED
:100DF000DE028091CF029091D002A091D102B091F9
:100E0000D2020196A11DB11D8093CF029093D00212
:100E1000A093D102B093D202BF91AF919F918F91D5
:100E20003F912F910F900FBE0F901F90189526E8BD
:100E3000230F0296A11DB11DD2CF1F920F920FB6A4
:100E40000F9211242F933F934F935F936F937F9350
:100E50008F939F93AF93BF93EF93FF938091B900CC
:100E6000887F803609F44AC0F0F5883209F4A7C0BB
:100E700018F5803109F49BC0B8F4882309F4F9C04F
:100E8000883009F494C0FF91EF91BF91AF919F9189
:100E90008F917F916F915F914F913F912F910F9023
:100EA0000FBE0F901F901895883109F488C08032CA
:100EB00051F78093A40214C0803409F49DC040F41B
:100EC0008033B9F38833F9F68093A40285ECB0C07F
:100ED000803509F485C0883509F496C0883499F6C0
:100EE0000E949B06D0CF883909F48CC038F588372A
:100EF00029F050F4883611F0803729F683E080938A
:100F0000A60210927F0257C0883809F47BC080394E
:100F100019F0803809F0B7CF80917F02803208F055
:100F200071C0E0917F0281E08E0F80937F028091FB
:100F3000BB00F0E0E15AFD4F80833DC0803B39F0BB
:100F4000E0F4803A09F479C0883A09F09CCF84E053
:100F50008093A60210925E0210925D02E091D5028B
:100F6000F091D602099580915D0281110FC081E058
:100F700080935D0210923D0209C0803C09F4A6CF27
:100F8000883C09F4A3CF883B09F07DCFE0915E0255
:100F900081E08E0F80935E02F0E0E35CFD4F808184
:100FA0008093BB0090915E0280915D0229C0809188
:100FB00081028093BB0085EC8093BC0064CF90914C
:100FC000A3028091A202981758F5E091A30281E054
:100FD0008E0F8093A302F0E0EE57FD4F8081E9CFA2
:100FE000E091A30281E08E0F8093A3028091BB0069
:100FF000F0E0EE57FD4F80839091A3028091A20212
:101000009817C8F285E8D8CFE091A30281E08E0F4F
:101010008093A3028091BB00F0E0EE57FD4F8083E8
:101020008091A50281115CCF81E08093800284EAE7
:101030008093BC001092A60226CF85EC8093BC0062
:101040001092A60280917F02803230F4E0917F02FC
:10105000F0E0E15AFD4F108260917F0270E0E09174
:10106000D302F091D4028FE592E0099510927F02AD
:101070000ACF1092A40234CF1092E2021092E10241
:1010800088EE93E0A0E0B0E08093E3029093E40266
:10109000A093E502B093E6028CE291E09093E00227
:1010A0008093DF0210925D0310925C0388E491E06C
:1010B00090935B0380935A0387E280935E0384E1FD
:1010C0008093630384E0809364031092650310921D
:1010D000ED021092F1021092F0021092F2028EE3F1
:1010E00091E09093EC028093EB02E7E0F3E0108252
:1010F000148213821582369683E0E334F807B9F739
:101100008CE091E090934E0380934D0388E091E052
:101110009093500380934F0384E080935103809316
:10112000520380E191E090934C0380934B038AE05B
:1011300090E0909354038093530384EF91E0909355
:10114000560380935503109259031092580310923E
:101150004703109248031092490310924A031092D9
:1011600057030895789484B5826084BD84B5816006
:1011700084BD85B5826085BD85B5816085BD809162
:101180006E00816080936E001092810080918100DA
:1011900082608093810080918100816080938100D2
:1011A000809180008160809380008091B100846094
:1011B0008093B1008091B00081608093B0008091F5
:1011C0007A00846080937A0080917A0082608093B4
:1011D0007A0080917A00816080937A0080917A0011
:1011E000806880937A001092C10061E08DE00E94D7
:1011F000D50161E08CE00E94D5011092DA021092D4
:10120000D9021092D8021092D7020E9494028FE164
:1012100091E09093D6028093D50280E291E0909382
:10122000D4028093D30210925F03809164038230D2
:1012300018F098E090935F038093620362E370E09C
:1012400080E090E00E943A02609165038AE593E0B5
:101250000E94590368EE73E080E090E00E943A0239
:1012600060E38AE593E00E945004CBE4D6E4CE012B
:101270000197F1F760E38AE593E00E94500421971B
:10128000F1F760E38AE593E00E94500483E592E081
:101290000197F1F760E28AE593E00E9450046091C3
:1012A0005F03606240E08AE593E00E94690484E0A5
:1012B0008093600340E06CE08AE593E00E9469045B
:1012C00040E061E08AE593E00E946904CBE3DFE15E
:1012D000CE010197F1F782E08093610340E066E080
:1012E0008AE593E00E94690440E062E08AE593E0C9
:1012F0000E9469042197F1F788E08093650360E01C
:101300008AE593E00E945903C0E0D0E00E94010505
:1013100060E080E00E94800481EA91E00E94430442
:101320000E941F0580910401833209F058C080910A
:101330000501833209F053C080910601833209F020
:101340004EC080910701833209F049C00E94010517
:1013500060E080E00E94800484EB91E00E944304FE
:101360000E941F050E94B304882309F45BC00E94F9
:10137000010560E080E00E94800482EC91E00E9420
:1013800043040E941F058091040180930001809115
:1013900005018093010180910601809302018091F3
:1013A00007018093030160E080E00E94800484EDE7
:1013B00091E00E94430461E080E00E94800487EE97
:1013C00091E00E94430468EE73E080E090E00E94A8
:1013D0003A02209709F49ACF0E94000097CF0E940A
:1013E000B3048823F9F060E080E00E94800485EF78
:1013F00091E00E94430461E080E00E94800488E064
:1014000092E00E94430461E08CE00E94A30168E83E
:1014100073E180E090E00E943A0260E08CE00E947C
:10142000A301D7CF0E94E304D4CFEE0FFF1F059096
:0A143000F491E02D0994F894FFCF29
:10143A003133333720202020030201000405060738
:10144A003132336134353662373839632A302364AE
:10145A000000400014005400000000002A03FD02AE
:10146A004004D302F602E302D40200000000110293
:10147A00D101A001000000001905210140046C02FD
:10148A00436865636B696E67206F75722000202060
:10149A0020202070617373776F72640050617373D8
:1014AA00776F726420202020202020002020202016
:1014BA0020696E76616C69646500202020202020F6
:1014CA002020202020202020202020202020202012
:1014DA0000496E7075742070617373776F7264203F
:1014EA00202020004F6C642050617373776F726400
:1014FA003A004E65772050617373776F72643A20B1
:10150A00202020004E65772070617373776F7264B4
:10151A00202020202020002020207365747570650B
:10152A00642020200050617373776F72642020203A
:10153A002020202020202000616363657074656488
:0C154A0020202020202020202020200035
:00000001FF
