:100000000C94A3000C94CB000C94CB000C94CB006C
:100010000C94CB000C94CB000C94CB000C94CB0034
:100020000C94CB000C94CB000C94CB000C94CB0024
:100030000C94CB000C94CB000C94CB000C94CB0014
:100040000C9486040C94CB000C9454040C942E0451
:100050000C94CB000C94CB000C94CB000C94CB00F4
:100060000C94CB000C94CB0007634236B79BD8A707
:100070001A39685618AEBAAB558C1D3CB7CC5763CD
:10008000BD6DEDFD753EF6177231BF000000803F7B
:1000900008000000BE922449123EABAAAA2ABECD97
:1000A000CCCC4C3E00000080BEABAAAAAA3E000009
:1000B0000000BF000000803F000000000008417801
:1000C000D3BB4387D1133D190E3CC3BD4282AD2B38
:1000D0003E68EC8276BED98FE1A93E4C80EFFFBE30
:1000E00001C4FF7F3F00000000000000000024006A
:1000F00027002A0000000000250028002B00000037
:1001000000080002010000030407000000000000D6
:10011000000000000000230026002900040404045D
:1001200004040404020202020202030303030303A1
:10013000010204081020408001020408102001027E
:1001400004081020150511241FBECFEFD8E0DEBF34
:10015000CDBF11E0A0E0B1E0E4EEF8E102C005900F
:100160000D92AC39B107D9F722E0ACE9B1E001C09A
:100170001D92AC38B207E1F710E0C3EAD0E004C04A
:100180002197FE010E945B0CC23AD107C9F70E9479
:1001900055050C94700C0C940000AF92BF92CF9256
:1001A000DF92EF92FF920F931F93CF93DF936C0137
:1001B0007B018B01040F151FEB015E01AE18BF0818
:1001C000C017D10759F06991D601ED91FC910190CA
:1001D000F081E02DC6010995892B79F7C501DF91E2
:1001E000CF911F910F91FF90EF90DF90CF90BF9034
:1001F000AF900895FC01538D448D252F30E0842F5E
:1002000090E0821B930B541710F0CF96089501973E
:100210000895FC01918D828D981761F0A28DAE0F2B
:10022000BF2FB11D5D968C91928D9F5F9F73928FB2
:1002300090E008958FEF9FEF0895FC01918D828DDE
:10024000981731F0828DE80FF11D858D90E00895AB
:100250008FEF9FEF0895FC01918D228D892F90E003
:10026000805C9F4F821B91098F739927089588EEB8
:1002700091E00E942B0121E0892B09F420E0822FDC
:10028000089580E090E0892B29F00E9437018111C8
:100290000C9400000895FC01A48DA80FB92FB11D86
:1002A000A35ABF4F2C91848D90E001968F739927AC
:1002B000848FA689B7892C93A089B1898C9183708A
:1002C00080648C93938D848D981306C00288F38983
:1002D000E02D80818F7D80830895EF92FF920F93B0
:1002E0001F93CF93DF93EC0181E0888F9B8D8C8DE2
:1002F00098131AC0E889F989808185FF15C09FB7D6
:10030000F894EE89FF896083E889F9898081837098
:10031000806480839FBF81E090E0DF91CF911F9147
:100320000F91FF90EF900895F62E0B8D10E00F5F68
:100330001F4F0F731127E02E8C8D8E110CC00FB63E
:1003400007FCFACFE889F989808185FFF5CFCE01D6
:100350000E944B01F1CFEB8DEC0FFD2FF11DE35A05
:10036000FF4FF0829FB7F8940B8FEA89FB89808159
:100370008062CFCFCF93DF93EC01888D8823B9F0D3
:10038000AA89BB89E889F9898C9185FD03C08081A0
:1003900086FD0DC00FB607FCF7CF8C9185FFF2CF1D
:1003A000808185FFEDCFCE010E944B01E9CFDF9127
:1003B000CF91089590E0FC01E250FF4F2491FC01A1
:1003C000E05DFE4F3491FC01E45EFE4FE491EE23CC
:1003D000C9F0222339F0233001F1A8F4213019F1BA
:1003E000223029F1F0E0EE0FFF1FEC50FF4FA591F6
:1003F000B4918FB7F894EC91611126C030953E23EB
:100400003C938FBF08952730A9F02830C9F02430DD
:1004100049F7809180008F7D03C0809180008F77A5
:1004200080938000DFCF84B58F7784BDDBCF84B528
:100430008F7DFBCF8091B0008F778093B000D2CFBB
:100440008091B0008F7DF9CF3E2BDACFCF93DF9331
:1004500090E0FC01E05DFE4F2491845E9E4FFC0124
:1004600084918823D1F090E0880F991FFC01E65118
:10047000FF4FA591B491FC01EC50FF4FC591D49171
:1004800061110EC09FB7F8948C91E22FE0958E23F6
:100490008C932881E223E8839FBFDF91CF91089559
:1004A0008FB7F894EC91E22BEC938FBFF6CF8E30A0
:1004B00008F08E508770806480937C0080917A0071
:1004C000806480937A0080917A0086FDFCCF8091D1
:1004D0007800909179000895CF92DF92EF92FF9289
:1004E0000F931F93CF93DF93EC018C01065F1F4F97
:1004F000C12CD12C760169917991072E000C880BC3
:10050000990B0E945A099B01AC01C701B6010E94D8
:100510003F086B017C010C171D0769F720E030E0F4
:1005200040EA50E40E94B008DF91CF911F910F91F3
:10053000FF90EF90DF90CF900895FC018081918132
:1005400045E0489F9001499F300D1124828193819D
:10055000880F991F880F991F280F391F44815581D3
:10056000CA01880F991F840F951F280F391F868194
:100570009781880F991F280F391F80859185820FD9
:10058000931F6FE070E00E94060C072E000C880B92
:10059000990B0E945A090895FC0101900020E9F787
:1005A0003197AF01481B590BBC0188EE91E00C94C8
:1005B000CD0082E191E00C94CC028F929F92AF9299
:1005C000BF920F931F93CF93DF93CDB7DEB7A19761
:1005D0000FB6F894DEBF0FBECDBF19A2423008F4AB
:1005E0004AE08E010F5D1F4F842E912CB12CA12C5F
:1005F000A50194010E941A0CE62FB901CA01EA3044
:10060000F4F4E05DD801EE938D01232B242B252BF0
:1006100079F790E080E0109719F0CD010E94CC02AC
:10062000A1960FB6F894DEBF0FBECDBFDF91CF917C
:100630001F910F91BF90AF909F908F900895E95CAC
:10064000E1CFCF92DF92EF92FF92CF93DF936B01D6
:100650007C016DE288EE91E00E946D01EC0166275D
:100660007727CB016C197D098E099F094AE00E940A
:10067000DD028C0F9D1FDF91CF91FF90EF90DF90F7
:10068000CF9008950C94CC02CF93DF930E94CC02BC
:10069000EC010E94D9028C0F9D1FDF91CF9108952C
:1006A0004F925F926F927F928F929F92AF92BF9282
:1006B000CF92DF92EF92FF926B017C01AC019B0124
:1006C0000E94CC0A8823B1F085E191E00E94CC021F
:1006D0007C010E94D9028E0D9F1DFF90EF90DF904C
:1006E000CF90BF90AF909F908F907F906F905F90D2
:1006F0004F90089546015701E894B7F82FEF3FEF68
:100700004FE75FE7C501B4010E94CC0A81110DC01B
:100710002FEF3FEF4FE75FE7C501B4010E94AB0841
:1007200018161CF489E191E0D1CF2FEF3FEF4FE78E
:100730005FE4C701B6010E940A0A18161CF48DE195
:1007400091E0C4CF2FEF3FEF4FE75FECC701B60159
:100750000E94AB0887FDF3CF20E030E0A901C7017C
:10076000B6010E94AB08B12CA12C87FF0AC06DE234
:1007700088EE91E00E946D015C01F7FAF094F7F8C1
:10078000F0942AE037ED43EA5BE3C701B6010E942B
:100790003F082B013C010E9429096B017C010E944A
:1007A00058099B01AC01C301B2010E943E082B0114
:1007B0003C014AE0C701B6010E94DD027C01EA0C5F
:1007C000FB1C6EE288EE91E00E946D01E80EF91EBE
:1007D00020E030E040E251E4C301B2010E940F0A80
:1007E0002B013C010E9429094B01B12CA12C4AE0AC
:1007F000C501B4010E94DD02E80EF91EC501B40175
:100800000E9458099B01AC01C301B2010E943E083D
:1008100020E030E040E251E40E940F0A0E942909E2
:1008200090E080E04AE00E94DD02E80EF91E51CF20
:10083000CF93DF93BC01990F880B990B97FF0AC0E8
:100840000E942103EC010E94D9028C0F9D1FDF91B1
:10085000CF9108954AE00E94DD02F4CF1F920F92DB
:100860000FB60F9211242F933F934F935F936F9383
:100870007F938F939F93AF93BF93EF93FF9388EEF4
:1008800091E00E944B01FF91EF91BF91AF919F9139
:100890008F917F916F915F914F913F912F910F9029
:1008A0000FBE0F901F9018951F920F920FB60F92C8
:1008B00011242F938F939F93EF93FF93E091F8016F
:1008C000F091F9018081E091FE01F091FF0182FD3C
:1008D0001BC09081809101028F5F8F732091020273
:1008E000821741F0E0910102F0E0E851FE4F958F50
:1008F00080930102FF91EF919F918F912F910F9023
:100900000FBE0F901F9018958081F4CF1F920F9209
:100910000FB60F9211242F933F938F939F93AF9312
:10092000BF938091A1019091A201A091A301B091E8
:10093000A4013091A00123E0230F2D3758F5019633
:10094000A11DB11D2093A0018093A1019093A2014C
:10095000A093A301B093A40180919C0190919D016B
:10096000A0919E01B0919F010196A11DB11D8093A0
:100970009C0190939D01A0939E01B0939F01BF9114
:10098000AF919F918F913F912F910F900FBE0F903C
:100990001F90189526E8230F0296A11DB11DD2CFF6
:1009A000CF92DF92EF92FF920F931F93E82FF92FD0
:1009B00005C0015011092109310961F19081962387
:1009C0009417B9F305C0015011092109310911F13A
:1009D000908196239413F7CFC12CD12CE12CF12CCC
:1009E0000AC08FEFC81AD80AE80AF80A0C151D05C4
:1009F0002E053F0579F080818623841791F36C2DB5
:100A00007D2D8E2D9F2D1F910F91FF90EF90DF90E8
:100A1000CF90089560E070E080E090E01F910F912A
:100A2000FF90EF90DF90CF900895E8EEF1E0138211
:100A3000128288EE93E0A0E0B0E084839583A683E1
:100A4000B78384E091E09183808385EC90E0958783
:100A5000848784EC90E09787868780EC90E0918B88
:100A6000808B81EC90E0938B828B82EC90E0958B75
:100A7000848B86EC90E0978B868B118E128E138E72
:100A8000148EE8E8F2E086E090E09383828387E0CA
:100A900090E0918380838FE090E090938702809331
:100AA000860280E1809385020895789484B58260FF
:100AB00084BD84B5816084BD85B5826085BD85B502
:100AC000816085BD80916E00816080936E00109280
:100AD00081008091810082608093810080918100FB
:100AE000816080938100809180008160809380008C
:100AF0008091B10084608093B1008091B0008160EA
:100B00008093B00080917A00846080937A00809115
:100B10007A00826080937A0080917A00816080936D
:100B20007A0080917A00806880937A001092C100E8
:100B3000E091F801F091F90182E08083E091F40105
:100B4000F091F5011082E091F601F091F7018FEC40
:100B5000808310920002E091FC01F091FD0186E09B
:100B60008083E091FA01F091FB01808180618083B4
:100B7000E091FA01F091FB01808188608083E0912F
:100B8000FA01F091FB01808180688083E091FA0195
:100B9000F091FB0180818F7D808361E080918802EC
:100BA0000E94260260E080918A020E94260260E094
:100BB000809186020E942602C3E0D0E043E2E42E48
:100BC000F12C54E6C52ED12C60E0262E60E0362EA6
:100BD0001092E7011091E701153008F074C0809180
:100BE00086020E945702E12FF0E0EE0FFF1FE35252
:100BF000FE4F9183808360E0809188020E94DA0139
:100C0000CE010197F1F761E0809188020E94DA013C
:100C1000C7010197F1F760E0809188020E94DA0134
:100C200080918A0290918B029927FC01E05DFE4F32
:100C30006491FC01E45EFE4FE491F0E0EE0FFF1FD3
:100C4000EE5EFE4F8591949100E412E42FE030E0D7
:100C5000462F0E94D0049B01AC01211531054105AE
:100C6000510529F02F5F3F4F4F4F5F4F5F709090BE
:100C7000E701092D10E0000F111FC8018D529E4F92
:100C80005C01A4E6B0E00E943C0C0E945A092DECE5
:100C90003CEC48E652E40E94B0080E942209CB01D5
:100CA000B6010E94060CF501718360838091850274
:100CB0000E945702F801E753FE4F9183808393947B
:100CC0009092E70187CF8DED91E00E949D026093A5
:100CD000C5017093C6018093C7019093C80183ED4D
:100CE00091E00E949D026093C1017093C2018093C4
:100CF000C3019093C40189EC91E00E949D0260932E
:100D0000BD017093BE018093BF019093C0018DED32
:100D100091E00E946C022B013C016091B90170913D
:100D2000BA018091BB019091BC019B01AC010E9472
:100D30003F0820E030E040E450E40E94B0084B015E
:100D40005C0120E030E040E450E4C301B2010E94C5
:100D5000B0089B01AC01C501B4010E943F0860933B
:100D6000B5017093B6018093B7019093B80183EDFC
:100D700091E00E946C022B013C016091B1017091E5
:100D8000B2018091B3019091B4019B01AC010E942A
:100D90003F0820E030E040E450E40E94B0084B01FE
:100DA0005C0120E030E040E450E4C301B2010E9465
:100DB000B0089B01AC01C501B4010E943F086093DB
:100DC000AD017093AE018093AF019093B00189ECB7
:100DD00091E00E946C022B013C016091A90170918D
:100DE000AA018091AB019091AC019B01AC010E94E2
:100DF0003F0820E030E040E450E40E94B0084B019E
:100E00005C0120E030E040E450E4C301B2010E9404
:100E1000B0089B01AC01C501B4010E943F0860937A
:100E2000A5017093A6018093A7019093A8018DED71
:100E300091E00E946C026093B9017093BA018093B3
:100E4000BB019093BC0183ED91E00E946C02609322
:100E5000B1017093B2018093B3019093B40189EC16
:100E600091E00E946C026093A9017093AA018093A3
:100E7000AB019093AC0181E291E00E94420380912A
:100E8000E5019091E6010E9418048FE291E00E9432
:100E9000440385E491E00E9442036091C501709192
:100EA000C6018091C7019091C8010E9450038BE454
:100EB00091E00E9442036091B5017091B60180916A
:100EC000B7019091B8010E9450036091C5017091E3
:100ED000C6018091C7019091C8010E942209072E86
:100EE000000C880B990B0E945A0920E030EC4FE768
:100EF00054E40E94B00820E030E040EA50E40E9450
:100F00000F0A4B015C01AC019B0160E070E080EADC
:100F100090E40E943E08A50194010E94B00820E0E0
:100F200030EA4CE855E40E940F0A2AE037ED43EB23
:100F30005FEB0E947C0A4B015C0181E591E00E941D
:100F4000420323E136E04FE35BE4C501B4010E94B4
:100F50000F0A0E9450030E94D9028BE591E00E9483
:100F600042038091D1019091D2010E9418048FE236
:100F700091E00E94440385E491E00E944203609165
:100F8000BD017091BE018091BF019091C0010E948E
:100F900050038BE491E00E9442036091A50170919F
:100FA000A6018091A7019091A8010E945003609131
:100FB000BD017091BE018091BF019091C0010E945E
:100FC0002209CB016AE070E00E94060C072E000C9B
:100FD000880B990B0E945A094B015C018AE691E04B
:100FE0000E944203C501B4010E9450030E94D9022D
:100FF00087E791E00E9442036091DB017091DC0180
:10100000072E000C880B990B97FF34C00E94210318
:1010100084E891E00E94440387E891E00E94440341
:1010200085E491E00E9442036091C1017091C20188
:101030008091C3019091C4010E9450038BE491E020
:101040000E9442036091AD017091AE018091AF01A9
:101050009091B0010E9450030E94D90221143104E2
:1010600009F4B6CD0E943701882309F4B1CD0E945E
:101070000000AECD4AE00E94DD02CACF5058BB2727
:10108000AA270E9456080C94D0090E94C20938F081
:101090000E94C90920F039F49F3F19F426F40C94FA
:1010A000BF090EF4E095E7FB0C94B909E92F0E9403
:1010B000E10958F3BA17620773078407950720F010
:1010C00079F4A6F50C94030A0EF4E0950B2EBA2FD2
:1010D000A02D0B01B90190010C01CA01A00111243E
:1010E000FF27591B99F0593F50F4503E68F11A16EA
:1010F000F040A22F232F342F4427585FF3CF46957B
:1011000037952795A795F0405395C9F77EF41F169C
:10111000BA0B620B730B840BBAF09150A1F0FF0F66
:10112000BB1F661F771F881FC2F70EC0BA0F621F52
:10113000731F841F48F4879577956795B795F79542
:101140009E3F08F0B0CF9395880F08F09927EE0FD7
:101150009795879508950E94950908F481E0089570
:101160000E94C4080C94D0090E94C90958F00E943A
:10117000C20940F029F45F3F29F00C94B9095111DC
:101180000C94040A0C94BF090E94E10968F39923A6
:10119000B1F3552391F3951B550BBB27AA27621773
:1011A0007307840738F09F5F5F4F220F331F441F80
:1011B000AA1FA9F335D00E2E3AF0E0E832D09150B4
:1011C0005040E695001CCAF72BD0FE2F29D0660FA1
:1011D000771F881FBB1F261737074807AB07B0E8E4
:1011E00009F0BB0B802DBF01FF2793585F4F3AF0EA
:1011F0009E3F510578F00C94B9090C94040A5F3FA6
:10120000E4F3983ED4F3869577956795B795F7956F
:101210009F5FC9F7880F911D9695879597F9089557
:10122000E1E0660F771F881FBB1F621773078407F3
:10123000BA0720F0621B730B840BBA0BEE1F88F702
:10124000E09508950E9429096894B1110C94040A4C
:1012500008950E94E90988F09F5798F0B92F9927BF
:10126000B751B0F0E1F0660F771F881F991F1AF091
:10127000BA95C9F714C0B13091F00E94030AB1E0E9
:1012800008950C94030A672F782F8827B85F39F0E8
:10129000B93FCCF3869577956795B395D9F73EF42A
:1012A00090958095709561957F4F8F4F9F4F0895D2
:1012B000E89409C097FB3EF49095809570956195F0
:1012C0007F4F8F4F9F4F9923A9F0F92F96E9BB27A6
:1012D0009395F695879577956795B795F111F8CF22
:1012E000FAF4BB0F11F460FF1BC06F5F7F4F8F4F8D
:1012F0009F4F16C0882311F096E911C0772321F083
:101300009EE8872F762F05C0662371F096E8862F1A
:1013100070E060E02AF09A95660F771F881FDAF771
:10132000880F9695879597F90895990F0008550F9E
:10133000AA0BE0E8FEEF16161706E807F907C0F05B
:1013400012161306E407F50798F0621B730B840B63
:10135000950B39F40A2661F0232B242B252B21F43D
:1013600008950A2609F4A140A6958FEF811D811DDD
:10137000089597F99F6780E870E060E008959FEF17
:1013800080EC089500240A9416161706180609061C
:10139000089500240A9412161306140605060895EB
:1013A000092E0394000C11F4882352F0BB0F40F473
:1013B000BF2B11F460FF04C06F5F7F4F8F4F9F4FB3
:1013C000089557FD9058440F551F59F05F3F71F035
:1013D0004795880F97FB991F61F09F3F79F087959C
:1013E0000895121613061406551FF2CF4695F1DF25
:1013F00008C0161617061806991FF1CF86957105B5
:10140000610508940895E894BB2766277727CB01E8
:1014100097F908950E94950908F48FEF08950E94A6
:10142000220A0C94D0090E94C20938F00E94C9090E
:1014300020F0952311F00C94B9090C94BF091124E4
:101440000C94040A0E94E10970F3959FC1F3950F73
:1014500050E0551F629FF001729FBB27F00DB11D38
:10146000639FAA27F00DB11DAA1F649F6627B00DC8
:10147000A11D661F829F2227B00DA11D621F739FB1
:10148000B00DA11D621F839FA00D611D221F749FBF
:101490003327A00D611D231F849F600D211D822F06
:1014A000762F6A2F11249F5750409AF0F1F088232D
:1014B0004AF0EE0FFF1FBB1F661F771F881F91505A
:1014C0005040A9F79E3F510580F00C94B9090C9447
:1014D000040A5F3FE4F3983ED4F3869577956795C9
:1014E000B795F795E7959F5FC1F7FE2B880F911D84
:1014F0009695879597F90895FA01EE0FFF1F30969C
:1015000021053105A1F16115710561F48038BFE352
:101510009B0749F168949038810561F08038BFEFEE
:101520009B0741F099234AF5FF3FE105310521056D
:1015300019F1E8940894E795D901AA2329F4AB2F6F
:10154000BE2FF85FD0F310C0FF5F70F4A695E0F7F0
:10155000F73950F019F0FF3A38F49F779F930DD088
:101560000F9007FC9058089546F00C94BF0960E076
:1015700070E080E89FE308954FE79F775F934F9374
:101580003F932F930E947C0B2F913F914F915F913E
:101590000E940F0A0C94D90A0E949509880B990B96
:1015A000089529F416F00C94B9090C94030A0C94CC
:1015B000BF090E94E909A8F39638A0F707F80F922F
:1015C000E8942BE33AEA48EB5FE70E94250A0F9282
:1015D0000F920F924DB75EB70F920E94C40BE8E6D0
:1015E000F0E00E940B0B4F915F91EF91FF91E59519
:1015F000EE1FFF1F49F0FE57E0684427EE0F441F1F
:10160000FA95E1F74195550B0E943E0B0F9007FEAE
:101610000C94320B0895DF93CF931F930F93FF9297
:10162000EF92DF927B018C01689406C0DA2EEF0105
:101630000E94220AFE01E894A591259135914591D9
:101640005591A6F3EF010E945608FE019701A801EB
:10165000DA9469F7DF90EF90FF900F911F91CF918F
:10166000DF9108959B01AC0160E070E080E89FE3AA
:101670000C94B0080C94B9090C94F80B0E94E90979
:10168000D8F39923C9F3940F511DA3F391505040FF
:1016900094F059F0882332F0660F771F881F91501D
:1016A0005040C1F79E3F51052CF7880F911D96952C
:1016B000879597F908955F3FACF0983E9CF0BB2763
:1016C000869577956795B79508F4B1609395C1F7BE
:1016D000BB0F58F711F460FFE8CF6F5F7F4F8F4F5C
:1016E0009F4FE3CF0C94040A16F00C94F80B0C9463
:1016F000BF0968940C94B9090E94E909A8F39923D9
:10170000C1F3AEF3DF93CF931F930F93FF92C92FD3
:10171000DD2788232AF02197660F771F881FDAF7C5
:1017200020E030E040E85FEB9FE3883920F0803E26
:1017300038F021968F770E943F08E0E9F0E004C07E
:101740000E943F08EDEBF0E00E940B0B8B01BE0105
:10175000EC01FB2E6F5771097595771F880B990B5C
:101760000E945A0928E132E741E35FE30E94220A1E
:10177000AF2D9801AE01FF900F911F91CF91DF9196
:101780000E9456080C94D009FA01DC01AA0FBB1F75
:101790009B01AC01BF5728F42227332744275078F8
:1017A00020C0B75190F4AB2F00244695379527956C
:1017B000011CA395D2F3002071F0220F331F441FA8
:1017C000B395DAF30ED00C943E0861307105A0E8B1
:1017D0008A07B94630F49B01AC0166277727882732
:1017E0009078309621F0208331834283538308958B
:1017F0009F3F31F0915020F4879577956795B79585
:10180000880F911D9695879597F9089597FB072E58
:1018100016F4009407D077FD09D00E94470C07FC0E
:1018200005D03EF4909581959F4F089570956195F0
:101830007F4F0895A1E21A2EAA1BBB1BFD010DC00C
:10184000AA1FBB1FEE1FFF1FA217B307E407F50770
:1018500020F0A21BB30BE40BF50B661F771F881F4C
:10186000991F1A9469F760957095809590959B01E2
:10187000AC01BD01CF0108950E94610CA59F900DA0
:10188000B49F900DA49F800D911D11240895AA1B53
:10189000BB1B51E107C0AA1FBB1FA617B70710F05B
:1018A000A61BB70B881F991F5A95A9F7809590958D
:1018B000BC01CD010895EE0FFF1F0590F491E02DBE
:1018C0000994A29FB001B39FC001A39F700D811D19
:1018D0001124911DB29F700D811D1124911D089539
:0418E000F894FFCFAA
:1018E400000000006D01CD00FA00BA012B010901CE
:1018F4001D010D0A006E616E00696E66006F7666EA
:10190400006C647220766F6C746167653A20006CB9
:10191400647220766F6C746167652066696C74729A
:1019240065643A2000574D413A2000454D413A2024
:10193400006C6472206C75783A20006C6D3335202D
:10194400766F6C746167653A20006C6D2063656C1A
:10195400736975733A2000556C747261736F6E69A4
:10196400633A2000636D00756C747261736F6E6905
:0C197400632066696C747265643A2000A0
:00000001FF
