:020000040000FA
:100000000C9462000C948A000C948A000C948A0070
:100010000C948A000C948A000C948A000C948A0038
:100020000C948A000C948A000C948A000C948A0028
:100030000C948A000C948A000C948A000C948A0018
:100040000C94BB040C948A000C948A000C948A00D3
:100050000C948A000C948A000C948A000C948A00F8
:100060000C9405050C948A00000000002400270071
:100070002A0000000000250028002B0000000000DE
:1000800023002600290004040404040404040202DA
:100090000202020203030303030301020408102007
:1000A0004080010204081020010204081020000012
:1000B0000008000201000003040700000000000027
:1000C0000000240611241FBECFEFD8E0DEBFCDBF55
:1000D00011E0A0E0B1E0ECEEFFE002C005900D926F
:1000E000AE33B107D9F722E0AEE3B1E001C01D9213
:1000F000A532B207E1F710E0C2E6D0E004C02197D4
:10010000FE010E94EE07C136D107C9F70E945C06C6
:100110000C94F4070C94000008950895AF92BF92D8
:10012000CF92DF92EF92FF920F931F93CF93DF93C3
:100130006C017B018B01040F151FEB015E01AE18F2
:10014000BF08C017D10759F06991D601ED91FC9114
:100150000190F081E02DC6010995892B79F7C50141
:10016000DF91CF911F910F91FF90EF90DF90CF9093
:10017000BF90AF900895833081F028F4813099F0DA
:100180008230A9F008958730A9F08830C9F0843012
:10019000B1F4809180008F7D03C0809180008F77C3
:1001A00080938000089584B58F7784BD089584B5C9
:1001B0008F7DFBCF8091B0008F778093B000089542
:1001C0008091B0008F7DF9CFCF93DF93282F30E05F
:1001D000F901E255FF4F8491F901E656FF4FD491A2
:1001E000F901EA57FF4FC491CC23A1F081110E947D
:1001F000BB00EC2FF0E0EE0FFF1FE458FF4FA5917E
:10020000B491EC91ED2381E090E009F480E0DF917E
:10021000CF91089580E090E0FACF1F93CF93DF93C2
:10022000282F30E0F901E255FF4F8491F901E6569D
:10023000FF4FD491F901EA57FF4FC491CC23A9F0A5
:10024000162F81110E94BB00EC2FF0E0EE0FFF1F74
:10025000EE58FF4FA591B4918FB7F894EC9111111E
:1002600008C0D095DE23DC938FBFDF91CF911F9123
:100270000895DE2BF8CFCF93DF9390E0FC01E65694
:10028000FF4F24918A579F4FFC0184918823D1F01E
:1002900090E0880F991FFC01E859FF4FA591B49198
:1002A000FC01EE58FF4FC591D491623071F49FB7B5
:1002B000F8943C91822F809583238C93E8812E2B98
:1002C00028839FBFDF91CF9108958FB7F894EC9169
:1002D0002E2B2C938FBFF6CF3FB7F8948091F5016A
:1002E0009091F601A091F701B091F80126B5A89B75
:1002F00005C02F3F19F00196A11DB11D3FBFBA2FB8
:10030000A92F982F8827BC01CD01620F711D811D77
:10031000911D42E0660F771F881F991F4A95D1F7FC
:1003200008958F929F92AF92BF92CF92DF92EF92F9
:10033000FF924B015C010E946C016B017C010E94E9
:100340006C016C197D098E099F09683E7340810517
:100350009105A8F321E0821A9108A108B10888EE5E
:10036000C80E83E0D81EE11CF11C81149104A10485
:10037000B10429F7FF90EF90DF90CF90BF90AF903E
:100380009F908F900895089520917F01260F332725
:10039000331F21323105ECF42091C801FC0190E0BB
:1003A00080E0243069F082E00895A0917F012191DE
:1003B000AC01415A5E4FA40FB52FB11D2C9301968D
:1003C000861798F380917F01680F60937F0180E02A
:1003D000089581E008951092C80181E08093C701DB
:1003E0001092A20161E082E10E940D0161E083E1CF
:1003F0000E940D01E9EBF0E080818E7F8083808197
:100400008D7F808388E48093B80085E48093BC006E
:100410000895CF93DF9391E090935E018823B9F024
:10042000C091B800D091BA008091BC008A7B8093C3
:10043000BC0060E082E10E940D0160E083E10E9467
:100440000D010E94EB01D093BA00C093B800DF9178
:10045000CF9108950895E09100028091FF01E8177F
:1004600030F4F0E0E25CFE4F808190E008958FEF81
:100470009FEF0895909100028091FF012FEF3FEFD1
:10048000981748F4E92FF0E0E25CFE4F208130E05D
:100490009F5F90930002C90108958091FF019091A0
:1004A0000002891B990B0895CF92DF92EF92FF9281
:1004B0000F931F93CF93DF937C01CB018A0120918F
:1004C000CE01222389F0EB016B01C40ED51ECC15A1
:1004D000DD0569F06991D701ED91FC910190F08102
:1004E000E02DC7010995F3CF642F0E94C401C80114
:1004F000DF91CF911F910F91FF90EF90DF90CF9000
:100500000895CF93DF931F92CDB7DEB76983209113
:10051000CE012223F9F02091FD01203258F021E094
:1005200030E0FC013383228390E080E00F90DF9184
:10053000CF9108958091FE01E82FF0E0E153FE4F46
:10054000998190838F5F8093FE018093FD0181E00C
:1005500090E0ECCF61E0CE0101960E94C401F7CF9C
:10056000CF92DF92EF92FF920F931F93CF93DF937F
:10057000FC01C48121E02093CE01C093EF011092D1
:10058000FE011092FD018385682B85E092E00E94B8
:100590008102D091FD01D13208F092C00E946C011D
:1005A0006B017C018091C801811165C082E080935C
:1005B000C80181E08093C7018FEF8093C60110923C
:1005C000C501D093C401AFECB1E0E4EAF1E080E012
:1005D000D81385C01092A3018091A301CC0FC82B22
:1005E000C093A3018091A201813009F07CC01092D8
:1005F000A2010E946C016B017C018091A301809398
:10060000BB008091CA019091CB01A091CC01B09127
:10061000CD01892B8A2B8B2B99F00E946C010091C4
:10062000CA011091CB012091CC013091CD016C1900
:100630007D098E099F090617170728073907E0F17A
:100640008091BC0083FDD9CF85EC8093BC000E94D3
:100650006C016B017C018091C801823009F445C0B6
:100660008091C6018F3F61F18091C601803241F1D6
:100670008091C60125C08091CA019091CB01A091C3
:10068000CC01B091CD01892B8A2B8B2B09F48ACF19
:100690000E946C010091CA011091CB012091CC0104
:1006A0003091CD016C197D098E099F090617170736
:1006B0002807390708F076CF8091C9010E94090206
:1006C0001092FE011092FD011092CE01DF91CF91A8
:1006D0001F910F91FF90EF90DF90CF9008959D9123
:1006E00091938F5F75CF85EEB0CF8091CA019091C5
:1006F000CB01A091CC01B091CD01892B8A2B8B2B02
:1007000009F4A9CF0E946C010091CA011091CB019C
:100710002091CC013091CD016C197D098E099F0982
:10072000061717072807390708F095CFC5CF90E0BF
:1007300080E008958F929F92AF92BF920F931F9384
:10074000CF93DF93CDB7DEB7A1970FB6F894DEBF96
:100750000FBECDBF19A2423008F44AE08E010F5DF2
:100760001F4F842E912CB12CA12CA50194010E9425
:10077000CC07E62FB901CA01EA3044F5E05DD801A3
:10078000EE938D01232B242B252B79F790E080E02D
:10079000109769F0FD0101900020E9F73197AF0152
:1007A0004A1B5B0BBD0189E192E00E948E00A1967D
:1007B0000FB6F894DEBF0FBECDBFDF91CF911F9172
:1007C0000F91BF90AF909F908F900895E95CD7CF25
:1007D000FC0101900020E9F73197AF01481B590B4C
:1007E000BC0189E192E00C948E000F931F93CF938C
:1007F0008C01C62F0E94B0026C2F6460C8010E9459
:10080000B0026C2F6B7FC8010E94B00283EC90E0B5
:100810000197F1F7CF911F910F9108950F931F93B7
:10082000CF93DF938C01D62FC42F607F642B0E945F
:10083000F50380E1D89FB00111246C2BC801DF9132
:10084000CF911F910F910C94F50341E00E940E048B
:1008500081E090E00895CF92DF92EF92FF9297FFB0
:1008600018C06B017C0141E06DE289E192E00E94D9
:100870000E0466277727CB016C197D098E099F0925
:100880004AE00E949A030196FF90EF90DF90CF908C
:1008900008954AE0FF90EF90DF90CF900C949A0378
:1008A000CF93DF93CDB7DEB728970FB6F894DEBFAE
:1008B0000FBECDBF98E0E1E0F1E0DE0111960190BE
:1008C0000D929A95E1F790912102961708F46FEF37
:1008D000262F30E0220F331F41E050E04C0F5D1F08
:1008E000240F351FF9016081680F606840E089E1DD
:1008F00092E028960FB6F894DEBF0FBECDBFDF9111
:10090000CF910C940E0485ED8093BC008091CA01B8
:100910009091CB01A091CC01B091CD010796A11D82
:10092000B11D23E0B695A795979587952A95D1F7A0
:100930002091BC0024FD03C01092C801089540918D
:10094000CA015091CB016091CC017091CD01452B32
:10095000462B472B69F30097A105B10541F025E32C
:100960002A95F1F700000197A109B109E1CF809123
:10097000C9010C9409021F920F920FB60F92112415
:100980002F933F938F939F93AF93BF938091F101E8
:100990009091F201A091F301B091F4013091F00136
:1009A00023E0230F2D3758F50196A11DB11D20938B
:1009B000F0018093F1019093F201A093F301B093C1
:1009C000F4018091F5019091F601A091F701B091A9
:1009D000F8010196A11DB11D8093F5019093F601D8
:1009E000A093F701B093F801BF91AF919F918F91C0
:1009F0003F912F910F900FBE0F901F90189526E8F2
:100A0000230F0296A11DB11DD2CF1F920F920FB6D8
:100A10000F9211242F933F934F935F936F937F9384
:100A20008F939F93AF93BF93EF93FF938091B90000
:100A3000887F803609F44AC0F0F5883209F4A7C0EF
:100A400018F5803109F49BC0B8F4882309F4F9C083
:100A5000883009F494C0FF91EF91BF91AF919F91BD
:100A60008F917F916F915F914F913F912F910F9057
:100A70000FBE0F901F901895883109F488C08032FE
:100A800051F78093C60114C0803409F49DC040F42E
:100A90008033B9F38833F9F68093C60185ECB0C092
:100AA000803509F485C0883509F496C0883499F6F4
:100AB0000E948304D0CF883909F48CC038F5883778
:100AC00029F050F4883611F0803729F683E08093BE
:100AD000C8011092A10157C0883809F47BC0803941
:100AE00019F0803809F0B7CF8091A101803208F069
:100AF00071C0E091A10181E08E0F8093A1018091EE
:100B0000BB00F0E0EF57FE4F80833DC0803B39F0E3
:100B1000E0F4803A09F479C0883A09F09CCF84E087
:100B20008093C8011092800110927F01E091FB0137
:100B3000F091FC01099580917F0181110FC081E046
:100B400080937F0110925F0109C0803C09F4A6CF19
:100B5000883C09F4A3CF883B09F07DCFE091800168
:100B600081E08E0F80938001F0E0E15AFE4F80819A
:100B70008093BB009091800180917F0129C080917A
:100B8000A3018093BB0085EC8093BC0064CF90915F
:100B9000C5018091C401981758F5E091C50181E025
:100BA0008E0F8093C501F0E0EC55FE4F8081E9CFB8
:100BB000E091C50181E08E0F8093C5018091BB005B
:100BC000F0E0EC55FE4F80839091C5018091C40107
:100BD0009817C8F285E8D8CFE091C50181E08E0F63
:100BE0008093C5018091BB00F0E0EC55FE4F8083FF
:100BF0008091C70181115CCF81E08093A20184EADA
:100C00008093BC001092C80126CF85EC8093BC0075
:100C10001092C8018091A101803230F4E091A101CD
:100C2000F0E0EF57FE4F10826091A10170E0E0917B
:100C3000F901F091FA0181E891E009951092A10182
:100C40000ACF1092C60134CFE5E0F2E0138212829F
:100C500088EE93E0A0E0B0E084839583A683B78319
:100C60008DE091E091838083E9E1F2E013821282CA
:100C70008FE191E09183808380E2848380E18187AA
:100C800082E0828713868DE090E090931802809333
:100C900017028CE090E0909316028093150283E097
:100CA00090E0909314028093130282E090E090937E
:100CB0001202809311020895789484B5826084BDF5
:100CC00084B5816084BD85B5826085BD85B5816050
:100CD00085BD80916E00816080936E0010928100CE
:100CE0008091810082608093810080918100816089
:100CF000809381008091800081608093800080914A
:100D0000B10084608093B1008091B00081608093D5
:100D1000B00080917A00846080937A0080917A009C
:100D2000826080937A0080917A00816080937A005B
:100D300080917A00806880937A001092C10061E00F
:100D4000809117020E943B0162E0809113020E9491
:100D50003B0161E0809115020E943B0162E08091BD
:100D600011020E943B01109200021092FF011092AA
:100D7000FE011092FD010E94EB018CE890E090933F
:100D8000FC018093FB018DE890E09093FA01809341
:100D9000F90110921E0280912302823018F098E02F
:100DA00090931E028093210262E370E080E090E065
:100DB0000E9491016091240289E192E00E94B002B8
:100DC00068EE73E080E090E00E94910160E389E1C9
:100DD00092E00E94F5030BE416E4C8010197F1F7D5
:100DE00060E389E192E00E94F503C8010197F1F701
:100DF00060E389E192E00E94F50383E592E00197C8
:100E0000F1F760E289E192E00E94F50360911E0231
:100E1000606240E089E192E00E940E0484E08093E9
:100E20001F0240E06CE089E192E00E940E0440E085
:100E300061E089E192E00E940E040BE31FE1C8012A
:100E40000197F1F782E08093200240E066E089E1BB
:100E500092E00E940E0440E062E089E192E00E948C
:100E60000E04C8010197F1F788E08093240260E046
:100E700089E192E00E94B002D1E000E010E0FF249E
:100E8000F394809113020E94E400C0E0892B81F466
:100E9000C0910102C1110CC0C091000180911702E4
:100EA000CC2309F45FC061E00E940D0110920001A3
:100EB000C0930102C09100018091150261E0C1114F
:100EC00001C060E00E940D01809111020E94E400C7
:100ED000892B09F44EC080E08093020260E080E03C
:100EE0000E94500487E291E00E94E80360E085E000
:100EF0000E945004609100016D2770E090E080E056
:100F00000E942B0460E088E00E9450048CE291E093
:100F10000E94E80360E08FE00E94500460910001AD
:100F200070E090E080E00E942B0461E080E00E948D
:100F3000500483E391E00E94E80361E08BE00E94AB
:100F400050046091030270910402072E000C880B7C
:100F5000990B0E942B040115110509F492CF0E94F0
:100F600000008FCF60E00E940D01F0920001C1E00F
:100F70009FCF81E0CC2309F4AFCF80910202811191
:100F8000ABCF8091030290910402019690930402EA
:100F9000809303028C2FA0CFA1E21A2EAA1BBB1BA9
:100FA000FD010DC0AA1FBB1FEE1FFF1FA217B30735
:100FB000E407F50720F0A21BB30BE40BF50B661F4B
:100FC000771F881F991F1A9469F76095709580950F
:100FD00090959B01AC01BD01CF010895EE0FFF1F5D
:100FE0000590F491E02D0994F894FFCF01000040A2
:100FF0000014005400000000008102540297032AEC
:10100000024D023A022B020000000025048E0097D8
:1010100003C3015265643A00477265656E3A00D0B9
:0A102000A16F756E7465723A00004E
:107E0000112484B714BE81FFF0D085E080938100F7
:107E100082E08093C00088E18093C10086E0809377
:107E2000C20080E18093C4008EE0C9D0259A86E02C
:107E300020E33CEF91E0309385002093840096BBD3
:107E4000B09BFECF1D9AA8958150A9F7CC24DD24C4
:107E500088248394B5E0AB2EA1E19A2EF3E0BF2EE7
:107E6000A2D0813461F49FD0082FAFD0023811F036
:107E7000013811F484E001C083E08DD089C08234E0
:107E800011F484E103C0853419F485E0A6D080C0E4
:107E9000853579F488D0E82EFF2485D0082F10E0AE
:107EA000102F00270E291F29000F111F8ED06801E7
:107EB0006FC0863521F484E090D080E0DECF843638
:107EC00009F040C070D06FD0082F6DD080E0C81688
:107ED00080E7D80618F4F601B7BEE895C0E0D1E017
:107EE00062D089930C17E1F7F0E0CF16F0E7DF06D8
:107EF00018F0F601B7BEE89568D007B600FCFDCFD4
:107F0000A601A0E0B1E02C9130E011968C91119780
:107F100090E0982F8827822B932B1296FA010C0160
:107F200087BEE89511244E5F5F4FF1E0A038BF0790
:107F300051F7F601A7BEE89507B600FCFDCF97BE46
:107F4000E89526C08437B1F42ED02DD0F82E2BD052
:107F50003CD0F601EF2C8F010F5F1F4F84911BD097
:107F6000EA94F801C1F70894C11CD11CFA94CF0C13
:107F7000D11C0EC0853739F428D08EE10CD085E9AC
:107F80000AD08FE07ACF813511F488E018D01DD067
:107F900080E101D065CF982F8091C00085FFFCCF94
:107FA0009093C60008958091C00087FFFCCF809118
:107FB000C00084FD01C0A8958091C6000895E0E648
:107FC000F0E098E1908380830895EDDF803219F02E
:107FD00088E0F5DFFFCF84E1DECF1F93182FE3DFCA
:107FE0001150E9F7F2DF1F91089580E0E8DFEE27F6
:047FF000FF270994CA
:027FFE00040479
:00000001FF
